{
  "_format": "hh-sol-artifact-1",
  "contractName": "Governance",
  "sourceName": "contracts/Governance.sol",
  "abi": [
    {
      "anonymous": false,
      "inputs": [
        {
          "indexed": true,
          "internalType": "uint256",
          "name": "requestId",
          "type": "uint256"
        },
        {
          "indexed": true,
          "internalType": "address",
          "name": "approver",
          "type": "address"
        }
      ],
      "name": "FundApproved",
      "type": "event"
    },
    {
      "anonymous": false,
      "inputs": [
        {
          "indexed": true,
          "internalType": "uint256",
          "name": "requestId",
          "type": "uint256"
        },
        {
          "indexed": false,
          "internalType": "string",
          "name": "purpose",
          "type": "string"
        },
        {
          "indexed": false,
          "internalType": "uint256",
          "name": "amount",
          "type": "uint256"
        },
        {
          "indexed": true,
          "internalType": "address",
          "name": "requester",
          "type": "address"
        }
      ],
      "name": "FundRequested",
      "type": "event"
    },
    {
      "anonymous": false,
      "inputs": [
        {
          "indexed": true,
          "internalType": "uint256",
          "name": "landId",
          "type": "uint256"
        },
        {
          "indexed": false,
          "internalType": "string",
          "name": "location",
          "type": "string"
        },
        {
          "indexed": true,
          "internalType": "address",
          "name": "owner",
          "type": "address"
        }
      ],
      "name": "LandRegistered",
      "type": "event"
    },
    {
      "anonymous": false,
      "inputs": [
        {
          "indexed": true,
          "internalType": "uint256",
          "name": "requestId",
          "type": "uint256"
        },
        {
          "indexed": true,
          "internalType": "address",
          "name": "applicant",
          "type": "address"
        },
        {
          "indexed": false,
          "internalType": "uint256",
          "name": "serviceId",
          "type": "uint256"
        }
      ],
      "name": "RequestCreated",
      "type": "event"
    },
    {
      "anonymous": false,
      "inputs": [
        {
          "indexed": true,
          "internalType": "uint256",
          "name": "requestId",
          "type": "uint256"
        },
        {
          "indexed": false,
          "internalType": "enum Governance.RequestStatus",
          "name": "status",
          "type": "uint8"
        },
        {
          "indexed": true,
          "internalType": "address",
          "name": "verifier",
          "type": "address"
        }
      ],
      "name": "RequestStatusUpdated",
      "type": "event"
    },
    {
      "anonymous": false,
      "inputs": [
        {
          "indexed": true,
          "internalType": "address",
          "name": "userAddress",
          "type": "address"
        },
        {
          "indexed": false,
          "internalType": "string",
          "name": "name",
          "type": "string"
        },
        {
          "indexed": false,
          "internalType": "enum Governance.Role",
          "name": "role",
          "type": "uint8"
        }
      ],
      "name": "UserRegistered",
      "type": "event"
    },
    {
      "inputs": [
        {
          "internalType": "uint256",
          "name": "_requestId",
          "type": "uint256"
        }
      ],
      "name": "approveFundRequest",
      "outputs": [],
      "stateMutability": "nonpayable",
      "type": "function"
    },
    {
      "inputs": [
        {
          "internalType": "uint256",
          "name": "_landId",
          "type": "uint256"
        }
      ],
      "name": "approveLand",
      "outputs": [],
      "stateMutability": "nonpayable",
      "type": "function"
    },
    {
      "inputs": [
        {
          "internalType": "uint256",
          "name": "_serviceId",
          "type": "uint256"
        },
        {
          "internalType": "string",
          "name": "_dataHash",
          "type": "string"
        }
      ],
      "name": "createServiceRequest",
      "outputs": [],
      "stateMutability": "nonpayable",
      "type": "function"
    },
    {
      "inputs": [],
      "name": "fundRequestCount",
      "outputs": [
        {
          "internalType": "uint256",
          "name": "",
          "type": "uint256"
        }
      ],
      "stateMutability": "view",
      "type": "function"
    },
    {
      "inputs": [
        {
          "internalType": "uint256",
          "name": "",
          "type": "uint256"
        }
      ],
      "name": "fundRequests",
      "outputs": [
        {
          "internalType": "uint256",
          "name": "id",
          "type": "uint256"
        },
        {
          "internalType": "string",
          "name": "purpose",
          "type": "string"
        },
        {
          "internalType": "uint256",
          "name": "amount",
          "type": "uint256"
        },
        {
          "internalType": "address",
          "name": "requester",
          "type": "address"
        },
        {
          "internalType": "bool",
          "name": "approved",
          "type": "bool"
        },
        {
          "internalType": "uint256",
          "name": "timestamp",
          "type": "uint256"
        }
      ],
      "stateMutability": "view",
      "type": "function"
    },
    {
      "inputs": [
        {
          "internalType": "uint256",
          "name": "_requestId",
          "type": "uint256"
        }
      ],
      "name": "getFundRequest",
      "outputs": [
        {
          "components": [
            {
              "internalType": "uint256",
              "name": "id",
              "type": "uint256"
            },
            {
              "internalType": "string",
              "name": "purpose",
              "type": "string"
            },
            {
              "internalType": "uint256",
              "name": "amount",
              "type": "uint256"
            },
            {
              "internalType": "address",
              "name": "requester",
              "type": "address"
            },
            {
              "internalType": "bool",
              "name": "approved",
              "type": "bool"
            },
            {
              "internalType": "uint256",
              "name": "timestamp",
              "type": "uint256"
            }
          ],
          "internalType": "struct Governance.FundRequest",
          "name": "",
          "type": "tuple"
        }
      ],
      "stateMutability": "view",
      "type": "function"
    },
    {
      "inputs": [
        {
          "internalType": "uint256",
          "name": "_landId",
          "type": "uint256"
        }
      ],
      "name": "getLand",
      "outputs": [
        {
          "components": [
            {
              "internalType": "uint256",
              "name": "id",
              "type": "uint256"
            },
            {
              "internalType": "string",
              "name": "location",
              "type": "string"
            },
            {
              "internalType": "uint256",
              "name": "area",
              "type": "uint256"
            },
            {
              "internalType": "address",
              "name": "owner",
              "type": "address"
            },
            {
              "internalType": "enum Governance.RequestStatus",
              "name": "status",
              "type": "uint8"
            }
          ],
          "internalType": "struct Governance.Land",
          "name": "",
          "type": "tuple"
        }
      ],
      "stateMutability": "view",
      "type": "function"
    },
    {
      "inputs": [
        {
          "internalType": "uint256",
          "name": "_requestId",
          "type": "uint256"
        }
      ],
      "name": "getRequest",
      "outputs": [
        {
          "components": [
            {
              "internalType": "uint256",
              "name": "id",
              "type": "uint256"
            },
            {
              "internalType": "uint256",
              "name": "serviceId",
              "type": "uint256"
            },
            {
              "internalType": "address",
              "name": "applicant",
              "type": "address"
            },
            {
              "internalType": "string",
              "name": "dataHash",
              "type": "string"
            },
            {
              "internalType": "enum Governance.RequestStatus",
              "name": "status",
              "type": "uint8"
            },
            {
              "internalType": "uint256",
              "name": "timestamp",
              "type": "uint256"
            },
            {
              "internalType": "string",
              "name": "remarks",
              "type": "string"
            }
          ],
          "internalType": "struct Governance.ServiceRequest",
          "name": "",
          "type": "tuple"
        }
      ],
      "stateMutability": "view",
      "type": "function"
    },
    {
      "inputs": [
        {
          "internalType": "address",
          "name": "_userAddress",
          "type": "address"
        }
      ],
      "name": "getUser",
      "outputs": [
        {
          "components": [
            {
              "internalType": "string",
              "name": "name",
              "type": "string"
            },
            {
              "internalType": "enum Governance.Role",
              "name": "role",
              "type": "uint8"
            },
            {
              "internalType": "bool",
              "name": "isRegistered",
              "type": "bool"
            },
            {
              "internalType": "string",
              "name": "emailHash",
              "type": "string"
            }
          ],
          "internalType": "struct Governance.User",
          "name": "",
          "type": "tuple"
        }
      ],
      "stateMutability": "view",
      "type": "function"
    },
    {
      "inputs": [],
      "name": "landCount",
      "outputs": [
        {
          "internalType": "uint256",
          "name": "",
          "type": "uint256"
        }
      ],
      "stateMutability": "view",
      "type": "function"
    },
    {
      "inputs": [
        {
          "internalType": "uint256",
          "name": "",
          "type": "uint256"
        }
      ],
      "name": "lands",
      "outputs": [
        {
          "internalType": "uint256",
          "name": "id",
          "type": "uint256"
        },
        {
          "internalType": "string",
          "name": "location",
          "type": "string"
        },
        {
          "internalType": "uint256",
          "name": "area",
          "type": "uint256"
        },
        {
          "internalType": "address",
          "name": "owner",
          "type": "address"
        },
        {
          "internalType": "enum Governance.RequestStatus",
          "name": "status",
          "type": "uint8"
        }
      ],
      "stateMutability": "view",
      "type": "function"
    },
    {
      "inputs": [
        {
          "internalType": "string",
          "name": "_location",
          "type": "string"
        },
        {
          "internalType": "uint256",
          "name": "_area",
          "type": "uint256"
        }
      ],
      "name": "registerLand",
      "outputs": [],
      "stateMutability": "nonpayable",
      "type": "function"
    },
    {
      "inputs": [
        {
          "internalType": "string",
          "name": "_name",
          "type": "string"
        },
        {
          "internalType": "enum Governance.Role",
          "name": "_role",
          "type": "uint8"
        },
        {
          "internalType": "string",
          "name": "_emailHash",
          "type": "string"
        }
      ],
      "name": "registerUser",
      "outputs": [],
      "stateMutability": "nonpayable",
      "type": "function"
    },
    {
      "inputs": [
        {
          "internalType": "uint256",
          "name": "_landId",
          "type": "uint256"
        }
      ],
      "name": "rejectLand",
      "outputs": [],
      "stateMutability": "nonpayable",
      "type": "function"
    },
    {
      "inputs": [],
      "name": "requestCount",
      "outputs": [
        {
          "internalType": "uint256",
          "name": "",
          "type": "uint256"
        }
      ],
      "stateMutability": "view",
      "type": "function"
    },
    {
      "inputs": [
        {
          "internalType": "string",
          "name": "_purpose",
          "type": "string"
        },
        {
          "internalType": "uint256",
          "name": "_amount",
          "type": "uint256"
        }
      ],
      "name": "requestFunds",
      "outputs": [],
      "stateMutability": "nonpayable",
      "type": "function"
    },
    {
      "inputs": [
        {
          "internalType": "uint256",
          "name": "",
          "type": "uint256"
        }
      ],
      "name": "requests",
      "outputs": [
        {
          "internalType": "uint256",
          "name": "id",
          "type": "uint256"
        },
        {
          "internalType": "uint256",
          "name": "serviceId",
          "type": "uint256"
        },
        {
          "internalType": "address",
          "name": "applicant",
          "type": "address"
        },
        {
          "internalType": "string",
          "name": "dataHash",
          "type": "string"
        },
        {
          "internalType": "enum Governance.RequestStatus",
          "name": "status",
          "type": "uint8"
        },
        {
          "internalType": "uint256",
          "name": "timestamp",
          "type": "uint256"
        },
        {
          "internalType": "string",
          "name": "remarks",
          "type": "string"
        }
      ],
      "stateMutability": "view",
      "type": "function"
    },
    {
      "inputs": [
        {
          "internalType": "uint256",
          "name": "_requestId",
          "type": "uint256"
        },
        {
          "internalType": "enum Governance.RequestStatus",
          "name": "_status",
          "type": "uint8"
        },
        {
          "internalType": "string",
          "name": "_remarks",
          "type": "string"
        }
      ],
      "name": "updateRequestStatus",
      "outputs": [],
      "stateMutability": "nonpayable",
      "type": "function"
    },
    {
      "inputs": [
        {
          "internalType": "address",
          "name": "",
          "type": "address"
        }
      ],
      "name": "users",
      "outputs": [
        {
          "internalType": "string",
          "name": "name",
          "type": "string"
        },
        {
          "internalType": "enum Governance.Role",
          "name": "role",
          "type": "uint8"
        },
        {
          "internalType": "bool",
          "name": "isRegistered",
          "type": "bool"
        },
        {
          "internalType": "string",
          "name": "emailHash",
          "type": "string"
        }
      ],
      "stateMutability": "view",
      "type": "function"
    }
  ],
  "bytecode": "0x608060405234801561001057600080fd5b506132d9806100206000396000f3fe608060405234801561001057600080fd5b50600436106101215760003560e01c806381d12c58116100ad578063ce924ed911610071578063ce924ed914610338578063d7bce65814610354578063d865873f14610372578063e261f1e51461038e578063f02dd53f146103c257610121565b806381d12c58146102655780639721edb91461029b578063a2b5e320146102b9578063a87430ba146102d5578063c58343ef1461030857610121565b80634dfa8434116100f45780634dfa8434146101965780635878d830146101c65780635badbe4c146101e25780636f77926b1461020057806380ee37fa1461023057610121565b806321464bfe1461012657806338c887b214610142578063452128e31461015e5780634c3231af1461017a575b600080fd5b610140600480360381019061013b919061209e565b6103f2565b005b61015c6004803603810190610157919061209e565b6105d2565b005b61017860048036038101906101739190612211565b6107a4565b005b610194600480360381019061018f919061209e565b6109e5565b005b6101b060048036038101906101ab919061209e565b610bb6565b6040516101bd91906123e0565b60405180910390f35b6101e060048036038101906101db9190612402565b610d04565b005b6101ea610efc565b6040516101f7919061246d565b60405180910390f35b61021a600480360381019061021591906124b4565b610f02565b60405161022791906125c2565b60405180910390f35b61024a6004803603810190610245919061209e565b6110d4565b60405161025c9695949392919061264c565b60405180910390f35b61027f600480360381019061027a919061209e565b6111c5565b60405161029297969594939291906126fc565b60405180910390f35b6102a3611344565b6040516102b0919061246d565b60405180910390f35b6102d360048036038101906102ce919061279e565b61134a565b005b6102ef60048036038101906102ea91906124b4565b611521565b6040516102ff9493929190612838565b60405180910390f35b610322600480360381019061031d919061209e565b61167b565b60405161032f919061293d565b60405180910390f35b610352600480360381019061034d9190612402565b61187b565b005b61035c611a81565b604051610369919061246d565b60405180910390f35b61038c60048036038101906103879190612984565b611a87565b005b6103a860048036038101906103a3919061209e565b611cbf565b6040516103b99594939291906129f3565b60405180910390f35b6103dc60048036038101906103d7919061209e565b611daa565b6040516103e99190612ac3565b60405180910390f35b60016002811115610406576104056124e1565b5b6000803373ffffffffffffffffffffffffffffffffffffffff1673ffffffffffffffffffffffffffffffffffffffff16815260200190815260200160002060010160009054906101000a900460ff166002811115610467576104666124e1565b5b146104a7576040517f08c379a000000000000000000000000000000000000000000000000000000000815260040161049e90612b31565b60405180910390fd5b6000811180156104b957506006548111155b6104f8576040517f08c379a00000000000000000000000000000000000000000000000000000000081526004016104ef90612b9d565b60405180910390fd5b6003600082815260200190815260200160002060030160149054906101000a900460ff161561055c576040517f08c379a000000000000000000000000000000000000000000000000000000000815260040161055390612c09565b60405180910390fd5b60016003600083815260200190815260200160002060030160146101000a81548160ff0219169083151502179055503373ffffffffffffffffffffffffffffffffffffffff16817f3a87be3596d79f6b7eb04a57849c8ea2601e4586b09ec62c43889f760bfeeb1960405160405180910390a350565b600160028111156105e6576105e56124e1565b5b6000803373ffffffffffffffffffffffffffffffffffffffff1673ffffffffffffffffffffffffffffffffffffffff16815260200190815260200160002060010160009054906101000a900460ff166002811115610647576106466124e1565b5b14610687576040517f08c379a000000000000000000000000000000000000000000000000000000000815260040161067e90612b31565b60405180910390fd5b60008111801561069957506005548111155b6106d8576040517f08c379a00000000000000000000000000000000000000000000000000000000081526004016106cf90612c75565b60405180910390fd5b600060028111156106ec576106eb6124e1565b5b6002600083815260200190815260200160002060030160149054906101000a900460ff166002811115610722576107216124e1565b5b14610762576040517f08c379a000000000000000000000000000000000000000000000000000000000815260040161075990612ce1565b60405180910390fd5b60016002600083815260200190815260200160002060030160146101000a81548160ff0219169083600281111561079c5761079b6124e1565b5b021790555050565b6000803373ffffffffffffffffffffffffffffffffffffffff1673ffffffffffffffffffffffffffffffffffffffff16815260200190815260200160002060010160019054906101000a900460ff16610832576040517f08c379a000000000000000000000000000000000000000000000000000000000815260040161082990612d4d565b60405180910390fd5b6004600081548092919061084590612d9c565b91905055506040518060e0016040528060045481526020018381526020013373ffffffffffffffffffffffffffffffffffffffff16815260200182815260200160006002811115610899576108986124e1565b5b815260200142815260200160405180602001604052806000815250815250600160006004548152602001908152602001600020600082015181600001556020820151816001015560408201518160020160006101000a81548173ffffffffffffffffffffffffffffffffffffffff021916908373ffffffffffffffffffffffffffffffffffffffff160217905550606082015181600301908161093c9190612ff0565b5060808201518160040160006101000a81548160ff02191690836002811115610968576109676124e1565b5b021790555060a0820151816005015560c082015181600601908161098c9190612ff0565b509050503373ffffffffffffffffffffffffffffffffffffffff166004547f0f07843fcc5047a6c0a2af35eec5eab563fa21efdc4473efb2303d6c2f8ec6f8846040516109d9919061246d565b60405180910390a35050565b600160028111156109f9576109f86124e1565b5b6000803373ffffffffffffffffffffffffffffffffffffffff1673ffffffffffffffffffffffffffffffffffffffff16815260200190815260200160002060010160009054906101000a900460ff166002811115610a5a57610a596124e1565b5b14610a9a576040517f08c379a0000000000000000000000000000000000000000000000000000000008152600401610a9190612b31565b60405180910390fd5b600081118015610aac57506005548111155b610aeb576040517f08c379a0000000000000000000000000000000000000000000000000000000008152600401610ae290612c75565b60405180910390fd5b60006002811115610aff57610afe6124e1565b5b6002600083815260200190815260200160002060030160149054906101000a900460ff166002811115610b3557610b346124e1565b5b14610b75576040517f08c379a0000000000000000000000000000000000000000000000000000000008152600401610b6c90612ce1565b60405180910390fd5b600280600083815260200190815260200160002060030160146101000a81548160ff02191690836002811115610bae57610bad6124e1565b5b021790555050565b610bbe611f0e565b600360008381526020019081526020016000206040518060c001604052908160008201548152602001600182018054610bf690612e13565b80601f0160208091040260200160405190810160405280929190818152602001828054610c2290612e13565b8015610c6f5780601f10610c4457610100808354040283529160200191610c6f565b820191906000526020600020905b815481529060010190602001808311610c5257829003601f168201915b50505050508152602001600282015481526020016003820160009054906101000a900473ffffffffffffffffffffffffffffffffffffffff1673ffffffffffffffffffffffffffffffffffffffff1673ffffffffffffffffffffffffffffffffffffffff1681526020016003820160149054906101000a900460ff161515151581526020016004820154815250509050919050565b6000803373ffffffffffffffffffffffffffffffffffffffff1673ffffffffffffffffffffffffffffffffffffffff16815260200190815260200160002060010160019054906101000a900460ff16610d92576040517f08c379a0000000000000000000000000000000000000000000000000000000008152600401610d8990612d4d565b60405180910390fd5b60066000815480929190610da590612d9c565b91905055506040518060c0016040528060065481526020018381526020018281526020013373ffffffffffffffffffffffffffffffffffffffff16815260200160001515815260200142815250600360006006548152602001908152602001600020600082015181600001556020820151816001019081610e269190612ff0565b506040820151816002015560608201518160030160006101000a81548173ffffffffffffffffffffffffffffffffffffffff021916908373ffffffffffffffffffffffffffffffffffffffff16021790555060808201518160030160146101000a81548160ff02191690831515021790555060a082015181600401559050503373ffffffffffffffffffffffffffffffffffffffff166006547fc37f40acc0c55043052c85bee48f5be1c3b629652c88d13352a3a3965f121c7d8484604051610ef09291906130c2565b60405180910390a35050565b60045481565b610f0a611f5c565b6000808373ffffffffffffffffffffffffffffffffffffffff1673ffffffffffffffffffffffffffffffffffffffff168152602001908152602001600020604051806080016040529081600082018054610f6390612e13565b80601f0160208091040260200160405190810160405280929190818152602001828054610f8f90612e13565b8015610fdc5780601f10610fb157610100808354040283529160200191610fdc565b820191906000526020600020905b815481529060010190602001808311610fbf57829003601f168201915b505050505081526020016001820160009054906101000a900460ff16600281111561100a576110096124e1565b5b600281111561101c5761101b6124e1565b5b81526020016001820160019054906101000a900460ff1615151515815260200160028201805461104b90612e13565b80601f016020809104026020016040519081016040528092919081815260200182805461107790612e13565b80156110c45780601f10611099576101008083540402835291602001916110c4565b820191906000526020600020905b8154815290600101906020018083116110a757829003601f168201915b5050505050815250509050919050565b60036020528060005260406000206000915090508060000154908060010180546110fd90612e13565b80601f016020809104026020016040519081016040528092919081815260200182805461112990612e13565b80156111765780601f1061114b57610100808354040283529160200191611176565b820191906000526020600020905b81548152906001019060200180831161115957829003601f168201915b5050505050908060020154908060030160009054906101000a900473ffffffffffffffffffffffffffffffffffffffff16908060030160149054906101000a900460ff16908060040154905086565b60016020528060005260406000206000915090508060000154908060010154908060020160009054906101000a900473ffffffffffffffffffffffffffffffffffffffff169080600301805461121a90612e13565b80601f016020809104026020016040519081016040528092919081815260200182805461124690612e13565b80156112935780601f1061126857610100808354040283529160200191611293565b820191906000526020600020905b81548152906001019060200180831161127657829003601f168201915b5050505050908060040160009054906101000a900460ff16908060050154908060060180546112c190612e13565b80601f01602080910402602001604051908101604052809291908181526020018280546112ed90612e13565b801561133a5780601f1061130f5761010080835404028352916020019161133a565b820191906000526020600020905b81548152906001019060200180831161131d57829003601f168201915b5050505050905087565b60065481565b6000803373ffffffffffffffffffffffffffffffffffffffff1673ffffffffffffffffffffffffffffffffffffffff16815260200190815260200160002060010160019054906101000a900460ff16156113d9576040517f08c379a00000000000000000000000000000000000000000000000000000000081526004016113d09061313e565b60405180910390fd5b60405180608001604052808481526020018360028111156113fd576113fc6124e1565b5b8152602001600115158152602001828152506000803373ffffffffffffffffffffffffffffffffffffffff1673ffffffffffffffffffffffffffffffffffffffff16815260200190815260200160002060008201518160000190816114629190612ff0565b5060208201518160010160006101000a81548160ff0219169083600281111561148e5761148d6124e1565b5b021790555060408201518160010160016101000a81548160ff02191690831515021790555060608201518160020190816114c89190612ff0565b509050503373ffffffffffffffffffffffffffffffffffffffff167fc2e5d5da58bd71d1a2d14cdef02a4256d971b728088f8190d067ccfbae3bd73e848460405161151492919061315e565b60405180910390a2505050565b600060205280600052604060002060009150905080600001805461154490612e13565b80601f016020809104026020016040519081016040528092919081815260200182805461157090612e13565b80156115bd5780601f10611592576101008083540402835291602001916115bd565b820191906000526020600020905b8154815290600101906020018083116115a057829003601f168201915b5050505050908060010160009054906101000a900460ff16908060010160019054906101000a900460ff16908060020180546115f890612e13565b80601f016020809104026020016040519081016040528092919081815260200182805461162490612e13565b80156116715780601f1061164657610100808354040283529160200191611671565b820191906000526020600020905b81548152906001019060200180831161165457829003601f168201915b5050505050905084565b611683611f98565b600160008381526020019081526020016000206040518060e001604052908160008201548152602001600182015481526020016002820160009054906101000a900473ffffffffffffffffffffffffffffffffffffffff1673ffffffffffffffffffffffffffffffffffffffff1673ffffffffffffffffffffffffffffffffffffffff16815260200160038201805461171b90612e13565b80601f016020809104026020016040519081016040528092919081815260200182805461174790612e13565b80156117945780601f1061176957610100808354040283529160200191611794565b820191906000526020600020905b81548152906001019060200180831161177757829003601f168201915b505050505081526020016004820160009054906101000a900460ff1660028111156117c2576117c16124e1565b5b60028111156117d4576117d36124e1565b5b8152602001600582015481526020016006820180546117f290612e13565b80601f016020809104026020016040519081016040528092919081815260200182805461181e90612e13565b801561186b5780601f106118405761010080835404028352916020019161186b565b820191906000526020600020905b81548152906001019060200180831161184e57829003601f168201915b5050505050815250509050919050565b6000803373ffffffffffffffffffffffffffffffffffffffff1673ffffffffffffffffffffffffffffffffffffffff16815260200190815260200160002060010160019054906101000a900460ff16611909576040517f08c379a000000000000000000000000000000000000000000000000000000000815260040161190090612d4d565b60405180910390fd5b6005600081548092919061191c90612d9c565b91905055506040518060a0016040528060055481526020018381526020018281526020013373ffffffffffffffffffffffffffffffffffffffff168152602001600060028111156119705761196f6124e1565b5b8152506002600060055481526020019081526020016000206000820151816000015560208201518160010190816119a79190612ff0565b506040820151816002015560608201518160030160006101000a81548173ffffffffffffffffffffffffffffffffffffffff021916908373ffffffffffffffffffffffffffffffffffffffff16021790555060808201518160030160146101000a81548160ff02191690836002811115611a2457611a236124e1565b5b02179055509050503373ffffffffffffffffffffffffffffffffffffffff166005547f0a14f5ae2f9ee538270143056894f8128fb116c653fb2fde847dcebdd181622e84604051611a75919061318e565b60405180910390a35050565b60055481565b600280811115611a9a57611a996124e1565b5b6000803373ffffffffffffffffffffffffffffffffffffffff1673ffffffffffffffffffffffffffffffffffffffff16815260200190815260200160002060010160009054906101000a900460ff166002811115611afb57611afa6124e1565b5b1480611b79575060016002811115611b1657611b156124e1565b5b6000803373ffffffffffffffffffffffffffffffffffffffff1673ffffffffffffffffffffffffffffffffffffffff16815260200190815260200160002060010160009054906101000a900460ff166002811115611b7757611b766124e1565b5b145b611bb8576040517f08c379a0000000000000000000000000000000000000000000000000000000008152600401611baf906131fc565b60405180910390fd5b600083118015611bca57506004548311155b611c09576040517f08c379a0000000000000000000000000000000000000000000000000000000008152600401611c0090613268565b60405180910390fd5b816001600085815260200190815260200160002060040160006101000a81548160ff02191690836002811115611c4257611c416124e1565b5b021790555080600160008581526020019081526020016000206006019081611c6a9190612ff0565b503373ffffffffffffffffffffffffffffffffffffffff16837fb2f775adab28eb8a550315c18b1ddb1a5aa256753961ffaf07bbd000afba66db84604051611cb29190613288565b60405180910390a3505050565b6002602052806000526040600020600091509050806000015490806001018054611ce890612e13565b80601f0160208091040260200160405190810160405280929190818152602001828054611d1490612e13565b8015611d615780601f10611d3657610100808354040283529160200191611d61565b820191906000526020600020905b815481529060010190602001808311611d4457829003601f168201915b5050505050908060020154908060030160009054906101000a900473ffffffffffffffffffffffffffffffffffffffff16908060030160149054906101000a900460ff16905085565b611db2611ffd565b600260008381526020019081526020016000206040518060a001604052908160008201548152602001600182018054611dea90612e13565b80601f0160208091040260200160405190810160405280929190818152602001828054611e1690612e13565b8015611e635780601f10611e3857610100808354040283529160200191611e63565b820191906000526020600020905b815481529060010190602001808311611e4657829003601f168201915b50505050508152602001600282015481526020016003820160009054906101000a900473ffffffffffffffffffffffffffffffffffffffff1673ffffffffffffffffffffffffffffffffffffffff1673ffffffffffffffffffffffffffffffffffffffff1681526020016003820160149054906101000a900460ff166002811115611ef157611ef06124e1565b5b6002811115611f0357611f026124e1565b5b815250509050919050565b6040518060c00160405280600081526020016060815260200160008152602001600073ffffffffffffffffffffffffffffffffffffffff168152602001600015158152602001600081525090565b60405180608001604052806060815260200160006002811115611f8257611f816124e1565b5b8152602001600015158152602001606081525090565b6040518060e001604052806000815260200160008152602001600073ffffffffffffffffffffffffffffffffffffffff1681526020016060815260200160006002811115611fe957611fe86124e1565b5b815260200160008152602001606081525090565b6040518060a00160405280600081526020016060815260200160008152602001600073ffffffffffffffffffffffffffffffffffffffff1681526020016000600281111561204e5761204d6124e1565b5b81525090565b6000604051905090565b600080fd5b600080fd5b6000819050919050565b61207b81612068565b811461208657600080fd5b50565b60008135905061209881612072565b92915050565b6000602082840312156120b4576120b361205e565b5b60006120c284828501612089565b91505092915050565b600080fd5b600080fd5b6000601f19601f8301169050919050565b7f4e487b7100000000000000000000000000000000000000000000000000000000600052604160045260246000fd5b61211e826120d5565b810181811067ffffffffffffffff8211171561213d5761213c6120e6565b5b80604052505050565b6000612150612054565b905061215c8282612115565b919050565b600067ffffffffffffffff82111561217c5761217b6120e6565b5b612185826120d5565b9050602081019050919050565b82818337600083830152505050565b60006121b46121af84612161565b612146565b9050828152602081018484840111156121d0576121cf6120d0565b5b6121db848285612192565b509392505050565b600082601f8301126121f8576121f76120cb565b5b81356122088482602086016121a1565b91505092915050565b600080604083850312156122285761222761205e565b5b600061223685828601612089565b925050602083013567ffffffffffffffff81111561225757612256612063565b5b612263858286016121e3565b9150509250929050565b61227681612068565b82525050565b600081519050919050565b600082825260208201905092915050565b60005b838110156122b657808201518184015260208101905061229b565b60008484015250505050565b60006122cd8261227c565b6122d78185612287565b93506122e7818560208601612298565b6122f0816120d5565b840191505092915050565b600073ffffffffffffffffffffffffffffffffffffffff82169050919050565b6000612326826122fb565b9050919050565b6123368161231b565b82525050565b60008115159050919050565b6123518161233c565b82525050565b600060c08301600083015161236f600086018261226d565b506020830151848203602086015261238782826122c2565b915050604083015161239c604086018261226d565b5060608301516123af606086018261232d565b5060808301516123c26080860182612348565b5060a08301516123d560a086018261226d565b508091505092915050565b600060208201905081810360008301526123fa8184612357565b905092915050565b600080604083850312156124195761241861205e565b5b600083013567ffffffffffffffff81111561243757612436612063565b5b612443858286016121e3565b925050602061245485828601612089565b9150509250929050565b61246781612068565b82525050565b6000602082019050612482600083018461245e565b92915050565b6124918161231b565b811461249c57600080fd5b50565b6000813590506124ae81612488565b92915050565b6000602082840312156124ca576124c961205e565b5b60006124d88482850161249f565b91505092915050565b7f4e487b7100000000000000000000000000000000000000000000000000000000600052602160045260246000fd5b60038110612521576125206124e1565b5b50565b600081905061253282612510565b919050565b600061254282612524565b9050919050565b61255281612537565b82525050565b6000608083016000830151848203600086015261257582826122c2565b915050602083015161258a6020860182612549565b50604083015161259d6040860182612348565b50606083015184820360608601526125b582826122c2565b9150508091505092915050565b600060208201905081810360008301526125dc8184612558565b905092915050565b600082825260208201905092915050565b60006126008261227c565b61260a81856125e4565b935061261a818560208601612298565b612623816120d5565b840191505092915050565b6126378161231b565b82525050565b6126468161233c565b82525050565b600060c082019050612661600083018961245e565b818103602083015261267381886125f5565b9050612682604083018761245e565b61268f606083018661262e565b61269c608083018561263d565b6126a960a083018461245e565b979650505050505050565b600381106126c5576126c46124e1565b5b50565b60008190506126d6826126b4565b919050565b60006126e6826126c8565b9050919050565b6126f6816126db565b82525050565b600060e082019050612711600083018a61245e565b61271e602083018961245e565b61272b604083018861262e565b818103606083015261273d81876125f5565b905061274c60808301866126ed565b61275960a083018561245e565b81810360c083015261276b81846125f5565b905098975050505050505050565b6003811061278657600080fd5b50565b60008135905061279881612779565b92915050565b6000806000606084860312156127b7576127b661205e565b5b600084013567ffffffffffffffff8111156127d5576127d4612063565b5b6127e1868287016121e3565b93505060206127f286828701612789565b925050604084013567ffffffffffffffff81111561281357612812612063565b5b61281f868287016121e3565b9150509250925092565b61283281612537565b82525050565b6000608082019050818103600083015261285281876125f5565b90506128616020830186612829565b61286e604083018561263d565b818103606083015261288081846125f5565b905095945050505050565b612894816126db565b82525050565b600060e0830160008301516128b2600086018261226d565b5060208301516128c5602086018261226d565b5060408301516128d8604086018261232d565b50606083015184820360608601526128f082826122c2565b9150506080830151612905608086018261288b565b5060a083015161291860a086018261226d565b5060c083015184820360c086015261293082826122c2565b9150508091505092915050565b60006020820190508181036000830152612957818461289a565b905092915050565b6003811061296c57600080fd5b50565b60008135905061297e8161295f565b92915050565b60008060006060848603121561299d5761299c61205e565b5b60006129ab86828701612089565b93505060206129bc8682870161296f565b925050604084013567ffffffffffffffff8111156129dd576129dc612063565b5b6129e9868287016121e3565b9150509250925092565b600060a082019050612a08600083018861245e565b8181036020830152612a1a81876125f5565b9050612a29604083018661245e565b612a36606083018561262e565b612a4360808301846126ed565b9695505050505050565b600060a083016000830151612a65600086018261226d565b5060208301518482036020860152612a7d82826122c2565b9150506040830151612a92604086018261226d565b506060830151612aa5606086018261232d565b506080830151612ab8608086018261288b565b508091505092915050565b60006020820190508181036000830152612add8184612a4d565b905092915050565b7f41646d696e206f6e6c7900000000000000000000000000000000000000000000600082015250565b6000612b1b600a836125e4565b9150612b2682612ae5565b602082019050919050565b60006020820190508181036000830152612b4a81612b0e565b9050919050565b7f496e76616c69642066756e642072657175657374204944000000000000000000600082015250565b6000612b876017836125e4565b9150612b9282612b51565b602082019050919050565b60006020820190508181036000830152612bb681612b7a565b9050919050565b7f416c726561647920617070726f76656400000000000000000000000000000000600082015250565b6000612bf36010836125e4565b9150612bfe82612bbd565b602082019050919050565b60006020820190508181036000830152612c2281612be6565b9050919050565b7f496e76616c6964206c616e642049440000000000000000000000000000000000600082015250565b6000612c5f600f836125e4565b9150612c6a82612c29565b602082019050919050565b60006020820190508181036000830152612c8e81612c52565b9050919050565b7f4c616e64206973206e6f742070656e64696e6700000000000000000000000000600082015250565b6000612ccb6013836125e4565b9150612cd682612c95565b602082019050919050565b60006020820190508181036000830152612cfa81612cbe565b9050919050565b7f55736572206e6f74207265676973746572656400000000000000000000000000600082015250565b6000612d376013836125e4565b9150612d4282612d01565b602082019050919050565b60006020820190508181036000830152612d6681612d2a565b9050919050565b7f4e487b7100000000000000000000000000000000000000000000000000000000600052601160045260246000fd5b6000612da782612068565b91507fffffffffffffffffffffffffffffffffffffffffffffffffffffffffffffffff8203612dd957612dd8612d6d565b5b600182019050919050565b7f4e487b7100000000000000000000000000000000000000000000000000000000600052602260045260246000fd5b60006002820490506001821680612e2b57607f821691505b602082108103612e3e57612e3d612de4565b5b50919050565b60008190508160005260206000209050919050565b60006020601f8301049050919050565b600082821b905092915050565b600060088302612ea67fffffffffffffffffffffffffffffffffffffffffffffffffffffffffffffffff82612e69565b612eb08683612e69565b95508019841693508086168417925050509392505050565b6000819050919050565b6000612eed612ee8612ee384612068565b612ec8565b612068565b9050919050565b6000819050919050565b612f0783612ed2565b612f1b612f1382612ef4565b848454612e76565b825550505050565b600090565b612f30612f23565b612f3b818484612efe565b505050565b5b81811015612f5f57612f54600082612f28565b600181019050612f41565b5050565b601f821115612fa457612f7581612e44565b612f7e84612e59565b81016020851015612f8d578190505b612fa1612f9985612e59565b830182612f40565b50505b505050565b600082821c905092915050565b6000612fc760001984600802612fa9565b1980831691505092915050565b6000612fe08383612fb6565b9150826002028217905092915050565b612ff98261227c565b67ffffffffffffffff811115613012576130116120e6565b5b61301c8254612e13565b613027828285612f63565b600060209050601f83116001811461305a5760008415613048578287015190505b6130528582612fd4565b8655506130ba565b601f19841661306886612e44565b60005b828110156130905784890151825560018201915060208501945060208101905061306b565b868310156130ad57848901516130a9601f891682612fb6565b8355505b6001600288020188555050505b505050505050565b600060408201905081810360008301526130dc81856125f5565b90506130eb602083018461245e565b9392505050565b7f5573657220616c72656164792072656769737465726564000000000000000000600082015250565b60006131286017836125e4565b9150613133826130f2565b602082019050919050565b600060208201905081810360008301526131578161311b565b9050919050565b6000604082019050818103600083015261317881856125f5565b90506131876020830184612829565b9392505050565b600060208201905081810360008301526131a881846125f5565b905092915050565b7f4e6f7420617574686f72697a6564000000000000000000000000000000000000600082015250565b60006131e6600e836125e4565b91506131f1826131b0565b602082019050919050565b60006020820190508181036000830152613215816131d9565b9050919050565b7f496e76616c696420726571756573742049440000000000000000000000000000600082015250565b60006132526012836125e4565b915061325d8261321c565b602082019050919050565b6000602082019050818103600083015261328181613245565b9050919050565b600060208201905061329d60008301846126ed565b9291505056fea264697066735822122025c6d7891a684b3a76ef5871291fb4d6b78c202d9f39d2418b01abd031d1c44864736f6c63430008180033",
  "linkReferences": {},
  "deployedLinkReferences": {}
}