{
  "_format": "hh-sol-artifact-1",
  "contractName": "Governance",
  "sourceName": "contracts/Governance.sol",
  "abi": [
    {
      "anonymous": false,
      "inputs": [
        {
          "indexed": true,
          "internalType": "uint256",
          "name": "requestId",
          "type": "uint256"
        },
        {
          "indexed": true,
          "internalType": "address",
          "name": "approver",
          "type": "address"
        }
      ],
      "name": "FundApproved",
      "type": "event"
    },
    {
      "anonymous": false,
      "inputs": [
        {
          "indexed": true,
          "internalType": "uint256",
          "name": "requestId",
          "type": "uint256"
        },
        {
          "indexed": false,
          "internalType": "string",
          "name": "purpose",
          "type": "string"
        },
        {
          "indexed": false,
          "internalType": "uint256",
          "name": "amount",
          "type": "uint256"
        },
        {
          "indexed": true,
          "internalType": "address",
          "name": "requester",
          "type": "address"
        }
      ],
      "name": "FundRequested",
      "type": "event"
    },
    {
      "anonymous": false,
      "inputs": [
        {
          "indexed": true,
          "internalType": "uint256",
          "name": "landId",
          "type": "uint256"
        },
        {
          "indexed": false,
          "internalType": "string",
          "name": "location",
          "type": "string"
        },
        {
          "indexed": true,
          "internalType": "address",
          "name": "owner",
          "type": "address"
        }
      ],
      "name": "LandRegistered",
      "type": "event"
    },
    {
      "anonymous": false,
      "inputs": [
        {
          "indexed": true,
          "internalType": "uint256",
          "name": "requestId",
          "type": "uint256"
        },
        {
          "indexed": true,
          "internalType": "address",
          "name": "applicant",
          "type": "address"
        },
        {
          "indexed": false,
          "internalType": "uint256",
          "name": "serviceId",
          "type": "uint256"
        }
      ],
      "name": "RequestCreated",
      "type": "event"
    },
    {
      "anonymous": false,
      "inputs": [
        {
          "indexed": true,
          "internalType": "uint256",
          "name": "requestId",
          "type": "uint256"
        },
        {
          "indexed": false,
          "internalType": "enum Governance.RequestStatus",
          "name": "status",
          "type": "uint8"
        },
        {
          "indexed": true,
          "internalType": "address",
          "name": "verifier",
          "type": "address"
        }
      ],
      "name": "RequestStatusUpdated",
      "type": "event"
    },
    {
      "anonymous": false,
      "inputs": [
        {
          "indexed": true,
          "internalType": "address",
          "name": "userAddress",
          "type": "address"
        },
        {
          "indexed": false,
          "internalType": "string",
          "name": "name",
          "type": "string"
        },
        {
          "indexed": false,
          "internalType": "enum Governance.Role",
          "name": "role",
          "type": "uint8"
        }
      ],
      "name": "UserRegistered",
      "type": "event"
    },
    {
      "inputs": [
        {
          "internalType": "uint256",
          "name": "_requestId",
          "type": "uint256"
        }
      ],
      "name": "approveFundRequest",
      "outputs": [],
      "stateMutability": "nonpayable",
      "type": "function"
    },
    {
      "inputs": [
        {
          "internalType": "uint256",
          "name": "_serviceId",
          "type": "uint256"
        },
        {
          "internalType": "string",
          "name": "_dataHash",
          "type": "string"
        }
      ],
      "name": "createServiceRequest",
      "outputs": [],
      "stateMutability": "nonpayable",
      "type": "function"
    },
    {
      "inputs": [],
      "name": "fundRequestCount",
      "outputs": [
        {
          "internalType": "uint256",
          "name": "",
          "type": "uint256"
        }
      ],
      "stateMutability": "view",
      "type": "function"
    },
    {
      "inputs": [
        {
          "internalType": "uint256",
          "name": "",
          "type": "uint256"
        }
      ],
      "name": "fundRequests",
      "outputs": [
        {
          "internalType": "uint256",
          "name": "id",
          "type": "uint256"
        },
        {
          "internalType": "string",
          "name": "purpose",
          "type": "string"
        },
        {
          "internalType": "uint256",
          "name": "amount",
          "type": "uint256"
        },
        {
          "internalType": "address",
          "name": "requester",
          "type": "address"
        },
        {
          "internalType": "bool",
          "name": "approved",
          "type": "bool"
        },
        {
          "internalType": "uint256",
          "name": "timestamp",
          "type": "uint256"
        }
      ],
      "stateMutability": "view",
      "type": "function"
    },
    {
      "inputs": [
        {
          "internalType": "uint256",
          "name": "_requestId",
          "type": "uint256"
        }
      ],
      "name": "getFundRequest",
      "outputs": [
        {
          "components": [
            {
              "internalType": "uint256",
              "name": "id",
              "type": "uint256"
            },
            {
              "internalType": "string",
              "name": "purpose",
              "type": "string"
            },
            {
              "internalType": "uint256",
              "name": "amount",
              "type": "uint256"
            },
            {
              "internalType": "address",
              "name": "requester",
              "type": "address"
            },
            {
              "internalType": "bool",
              "name": "approved",
              "type": "bool"
            },
            {
              "internalType": "uint256",
              "name": "timestamp",
              "type": "uint256"
            }
          ],
          "internalType": "struct Governance.FundRequest",
          "name": "",
          "type": "tuple"
        }
      ],
      "stateMutability": "view",
      "type": "function"
    },
    {
      "inputs": [
        {
          "internalType": "uint256",
          "name": "_landId",
          "type": "uint256"
        }
      ],
      "name": "getLand",
      "outputs": [
        {
          "components": [
            {
              "internalType": "uint256",
              "name": "id",
              "type": "uint256"
            },
            {
              "internalType": "string",
              "name": "location",
              "type": "string"
            },
            {
              "internalType": "uint256",
              "name": "area",
              "type": "uint256"
            },
            {
              "internalType": "address",
              "name": "owner",
              "type": "address"
            },
            {
              "internalType": "bool",
              "name": "isRegistered",
              "type": "bool"
            }
          ],
          "internalType": "struct Governance.Land",
          "name": "",
          "type": "tuple"
        }
      ],
      "stateMutability": "view",
      "type": "function"
    },
    {
      "inputs": [
        {
          "internalType": "uint256",
          "name": "_requestId",
          "type": "uint256"
        }
      ],
      "name": "getRequest",
      "outputs": [
        {
          "components": [
            {
              "internalType": "uint256",
              "name": "id",
              "type": "uint256"
            },
            {
              "internalType": "uint256",
              "name": "serviceId",
              "type": "uint256"
            },
            {
              "internalType": "address",
              "name": "applicant",
              "type": "address"
            },
            {
              "internalType": "string",
              "name": "dataHash",
              "type": "string"
            },
            {
              "internalType": "enum Governance.RequestStatus",
              "name": "status",
              "type": "uint8"
            },
            {
              "internalType": "uint256",
              "name": "timestamp",
              "type": "uint256"
            },
            {
              "internalType": "string",
              "name": "remarks",
              "type": "string"
            }
          ],
          "internalType": "struct Governance.ServiceRequest",
          "name": "",
          "type": "tuple"
        }
      ],
      "stateMutability": "view",
      "type": "function"
    },
    {
      "inputs": [
        {
          "internalType": "address",
          "name": "_userAddress",
          "type": "address"
        }
      ],
      "name": "getUser",
      "outputs": [
        {
          "components": [
            {
              "internalType": "string",
              "name": "name",
              "type": "string"
            },
            {
              "internalType": "enum Governance.Role",
              "name": "role",
              "type": "uint8"
            },
            {
              "internalType": "bool",
              "name": "isRegistered",
              "type": "bool"
            },
            {
              "internalType": "string",
              "name": "emailHash",
              "type": "string"
            }
          ],
          "internalType": "struct Governance.User",
          "name": "",
          "type": "tuple"
        }
      ],
      "stateMutability": "view",
      "type": "function"
    },
    {
      "inputs": [],
      "name": "landCount",
      "outputs": [
        {
          "internalType": "uint256",
          "name": "",
          "type": "uint256"
        }
      ],
      "stateMutability": "view",
      "type": "function"
    },
    {
      "inputs": [
        {
          "internalType": "uint256",
          "name": "",
          "type": "uint256"
        }
      ],
      "name": "lands",
      "outputs": [
        {
          "internalType": "uint256",
          "name": "id",
          "type": "uint256"
        },
        {
          "internalType": "string",
          "name": "location",
          "type": "string"
        },
        {
          "internalType": "uint256",
          "name": "area",
          "type": "uint256"
        },
        {
          "internalType": "address",
          "name": "owner",
          "type": "address"
        },
        {
          "internalType": "bool",
          "name": "isRegistered",
          "type": "bool"
        }
      ],
      "stateMutability": "view",
      "type": "function"
    },
    {
      "inputs": [
        {
          "internalType": "string",
          "name": "_location",
          "type": "string"
        },
        {
          "internalType": "uint256",
          "name": "_area",
          "type": "uint256"
        }
      ],
      "name": "registerLand",
      "outputs": [],
      "stateMutability": "nonpayable",
      "type": "function"
    },
    {
      "inputs": [
        {
          "internalType": "string",
          "name": "_name",
          "type": "string"
        },
        {
          "internalType": "enum Governance.Role",
          "name": "_role",
          "type": "uint8"
        },
        {
          "internalType": "string",
          "name": "_emailHash",
          "type": "string"
        }
      ],
      "name": "registerUser",
      "outputs": [],
      "stateMutability": "nonpayable",
      "type": "function"
    },
    {
      "inputs": [],
      "name": "requestCount",
      "outputs": [
        {
          "internalType": "uint256",
          "name": "",
          "type": "uint256"
        }
      ],
      "stateMutability": "view",
      "type": "function"
    },
    {
      "inputs": [
        {
          "internalType": "string",
          "name": "_purpose",
          "type": "string"
        },
        {
          "internalType": "uint256",
          "name": "_amount",
          "type": "uint256"
        }
      ],
      "name": "requestFunds",
      "outputs": [],
      "stateMutability": "nonpayable",
      "type": "function"
    },
    {
      "inputs": [
        {
          "internalType": "uint256",
          "name": "",
          "type": "uint256"
        }
      ],
      "name": "requests",
      "outputs": [
        {
          "internalType": "uint256",
          "name": "id",
          "type": "uint256"
        },
        {
          "internalType": "uint256",
          "name": "serviceId",
          "type": "uint256"
        },
        {
          "internalType": "address",
          "name": "applicant",
          "type": "address"
        },
        {
          "internalType": "string",
          "name": "dataHash",
          "type": "string"
        },
        {
          "internalType": "enum Governance.RequestStatus",
          "name": "status",
          "type": "uint8"
        },
        {
          "internalType": "uint256",
          "name": "timestamp",
          "type": "uint256"
        },
        {
          "internalType": "string",
          "name": "remarks",
          "type": "string"
        }
      ],
      "stateMutability": "view",
      "type": "function"
    },
    {
      "inputs": [
        {
          "internalType": "uint256",
          "name": "_requestId",
          "type": "uint256"
        },
        {
          "internalType": "enum Governance.RequestStatus",
          "name": "_status",
          "type": "uint8"
        },
        {
          "internalType": "string",
          "name": "_remarks",
          "type": "string"
        }
      ],
      "name": "updateRequestStatus",
      "outputs": [],
      "stateMutability": "nonpayable",
      "type": "function"
    },
    {
      "inputs": [
        {
          "internalType": "address",
          "name": "",
          "type": "address"
        }
      ],
      "name": "users",
      "outputs": [
        {
          "internalType": "string",
          "name": "name",
          "type": "string"
        },
        {
          "internalType": "enum Governance.Role",
          "name": "role",
          "type": "uint8"
        },
        {
          "internalType": "bool",
          "name": "isRegistered",
          "type": "bool"
        },
        {
          "internalType": "string",
          "name": "emailHash",
          "type": "string"
        }
      ],
      "stateMutability": "view",
      "type": "function"
    }
  ],
  "bytecode": "0x608060405234801561001057600080fd5b50612dc0806100206000396000f3fe608060405234801561001057600080fd5b506004361061010b5760003560e01c80639721edb9116100a2578063ce924ed911610071578063ce924ed9146102ea578063d7bce65814610306578063d865873f14610324578063e261f1e514610340578063f02dd53f146103745761010b565b80639721edb91461024d578063a2b5e3201461026b578063a87430ba14610287578063c58343ef146102ba5761010b565b80635badbe4c116100de5780635badbe4c146101945780636f77926b146101b257806380ee37fa146101e257806381d12c58146102175761010b565b806321464bfe14610110578063452128e31461012c5780634dfa8434146101485780635878d83014610178575b600080fd5b61012a60048036038101906101259190611c5d565b6103a4565b005b61014660048036038101906101419190611dd0565b610584565b005b610162600480360381019061015d9190611c5d565b6107c5565b60405161016f9190611f9f565b60405180910390f35b610192600480360381019061018d9190611fc1565b610913565b005b61019c610b0b565b6040516101a9919061202c565b60405180910390f35b6101cc60048036038101906101c79190612073565b610b11565b6040516101d99190612181565b60405180910390f35b6101fc60048036038101906101f79190611c5d565b610ce3565b60405161020e9695949392919061220b565b60405180910390f35b610231600480360381019061022c9190611c5d565b610dd4565b60405161024497969594939291906122bb565b60405180910390f35b610255610f53565b604051610262919061202c565b60405180910390f35b6102856004803603810190610280919061235d565b610f59565b005b6102a1600480360381019061029c9190612073565b611130565b6040516102b194939291906123f7565b60405180910390f35b6102d460048036038101906102cf9190611c5d565b61128a565b6040516102e191906124fc565b60405180910390f35b61030460048036038101906102ff9190611fc1565b61148a565b005b61030e611670565b60405161031b919061202c565b60405180910390f35b61033e60048036038101906103399190612543565b611676565b005b61035a60048036038101906103559190611c5d565b6118ae565b60405161036b9594939291906125b2565b60405180910390f35b61038e60048036038101906103899190611c5d565b611999565b60405161039b9190612682565b60405180910390f35b600160028111156103b8576103b76120a0565b5b6000803373ffffffffffffffffffffffffffffffffffffffff1673ffffffffffffffffffffffffffffffffffffffff16815260200190815260200160002060010160009054906101000a900460ff166002811115610419576104186120a0565b5b14610459576040517f08c379a0000000000000000000000000000000000000000000000000000000008152600401610450906126f0565b60405180910390fd5b60008111801561046b57506006548111155b6104aa576040517f08c379a00000000000000000000000000000000000000000000000000000000081526004016104a19061275c565b60405180910390fd5b6003600082815260200190815260200160002060030160149054906101000a900460ff161561050e576040517f08c379a0000000000000000000000000000000000000000000000000000000008152600401610505906127c8565b60405180910390fd5b60016003600083815260200190815260200160002060030160146101000a81548160ff0219169083151502179055503373ffffffffffffffffffffffffffffffffffffffff16817f3a87be3596d79f6b7eb04a57849c8ea2601e4586b09ec62c43889f760bfeeb1960405160405180910390a350565b6000803373ffffffffffffffffffffffffffffffffffffffff1673ffffffffffffffffffffffffffffffffffffffff16815260200190815260200160002060010160019054906101000a900460ff16610612576040517f08c379a000000000000000000000000000000000000000000000000000000000815260040161060990612834565b60405180910390fd5b6004600081548092919061062590612883565b91905055506040518060e0016040528060045481526020018381526020013373ffffffffffffffffffffffffffffffffffffffff16815260200182815260200160006002811115610679576106786120a0565b5b815260200142815260200160405180602001604052806000815250815250600160006004548152602001908152602001600020600082015181600001556020820151816001015560408201518160020160006101000a81548173ffffffffffffffffffffffffffffffffffffffff021916908373ffffffffffffffffffffffffffffffffffffffff160217905550606082015181600301908161071c9190612ad7565b5060808201518160040160006101000a81548160ff02191690836002811115610748576107476120a0565b5b021790555060a0820151816005015560c082015181600601908161076c9190612ad7565b509050503373ffffffffffffffffffffffffffffffffffffffff166004547f0f07843fcc5047a6c0a2af35eec5eab563fa21efdc4473efb2303d6c2f8ec6f8846040516107b9919061202c565b60405180910390a35050565b6107cd611add565b600360008381526020019081526020016000206040518060c001604052908160008201548152602001600182018054610805906128fa565b80601f0160208091040260200160405190810160405280929190818152602001828054610831906128fa565b801561087e5780601f106108535761010080835404028352916020019161087e565b820191906000526020600020905b81548152906001019060200180831161086157829003601f168201915b50505050508152602001600282015481526020016003820160009054906101000a900473ffffffffffffffffffffffffffffffffffffffff1673ffffffffffffffffffffffffffffffffffffffff1673ffffffffffffffffffffffffffffffffffffffff1681526020016003820160149054906101000a900460ff161515151581526020016004820154815250509050919050565b6000803373ffffffffffffffffffffffffffffffffffffffff1673ffffffffffffffffffffffffffffffffffffffff16815260200190815260200160002060010160019054906101000a900460ff166109a1576040517f08c379a000000000000000000000000000000000000000000000000000000000815260040161099890612834565b60405180910390fd5b600660008154809291906109b490612883565b91905055506040518060c0016040528060065481526020018381526020018281526020013373ffffffffffffffffffffffffffffffffffffffff16815260200160001515815260200142815250600360006006548152602001908152602001600020600082015181600001556020820151816001019081610a359190612ad7565b506040820151816002015560608201518160030160006101000a81548173ffffffffffffffffffffffffffffffffffffffff021916908373ffffffffffffffffffffffffffffffffffffffff16021790555060808201518160030160146101000a81548160ff02191690831515021790555060a082015181600401559050503373ffffffffffffffffffffffffffffffffffffffff166006547fc37f40acc0c55043052c85bee48f5be1c3b629652c88d13352a3a3965f121c7d8484604051610aff929190612ba9565b60405180910390a35050565b60045481565b610b19611b2b565b6000808373ffffffffffffffffffffffffffffffffffffffff1673ffffffffffffffffffffffffffffffffffffffff168152602001908152602001600020604051806080016040529081600082018054610b72906128fa565b80601f0160208091040260200160405190810160405280929190818152602001828054610b9e906128fa565b8015610beb5780601f10610bc057610100808354040283529160200191610beb565b820191906000526020600020905b815481529060010190602001808311610bce57829003601f168201915b505050505081526020016001820160009054906101000a900460ff166002811115610c1957610c186120a0565b5b6002811115610c2b57610c2a6120a0565b5b81526020016001820160019054906101000a900460ff16151515158152602001600282018054610c5a906128fa565b80601f0160208091040260200160405190810160405280929190818152602001828054610c86906128fa565b8015610cd35780601f10610ca857610100808354040283529160200191610cd3565b820191906000526020600020905b815481529060010190602001808311610cb657829003601f168201915b5050505050815250509050919050565b6003602052806000526040600020600091509050806000015490806001018054610d0c906128fa565b80601f0160208091040260200160405190810160405280929190818152602001828054610d38906128fa565b8015610d855780601f10610d5a57610100808354040283529160200191610d85565b820191906000526020600020905b815481529060010190602001808311610d6857829003601f168201915b5050505050908060020154908060030160009054906101000a900473ffffffffffffffffffffffffffffffffffffffff16908060030160149054906101000a900460ff16908060040154905086565b60016020528060005260406000206000915090508060000154908060010154908060020160009054906101000a900473ffffffffffffffffffffffffffffffffffffffff1690806003018054610e29906128fa565b80601f0160208091040260200160405190810160405280929190818152602001828054610e55906128fa565b8015610ea25780601f10610e7757610100808354040283529160200191610ea2565b820191906000526020600020905b815481529060010190602001808311610e8557829003601f168201915b5050505050908060040160009054906101000a900460ff1690806005015490806006018054610ed0906128fa565b80601f0160208091040260200160405190810160405280929190818152602001828054610efc906128fa565b8015610f495780601f10610f1e57610100808354040283529160200191610f49565b820191906000526020600020905b815481529060010190602001808311610f2c57829003601f168201915b5050505050905087565b60065481565b6000803373ffffffffffffffffffffffffffffffffffffffff1673ffffffffffffffffffffffffffffffffffffffff16815260200190815260200160002060010160019054906101000a900460ff1615610fe8576040517f08c379a0000000000000000000000000000000000000000000000000000000008152600401610fdf90612c25565b60405180910390fd5b604051806080016040528084815260200183600281111561100c5761100b6120a0565b5b8152602001600115158152602001828152506000803373ffffffffffffffffffffffffffffffffffffffff1673ffffffffffffffffffffffffffffffffffffffff16815260200190815260200160002060008201518160000190816110719190612ad7565b5060208201518160010160006101000a81548160ff0219169083600281111561109d5761109c6120a0565b5b021790555060408201518160010160016101000a81548160ff02191690831515021790555060608201518160020190816110d79190612ad7565b509050503373ffffffffffffffffffffffffffffffffffffffff167fc2e5d5da58bd71d1a2d14cdef02a4256d971b728088f8190d067ccfbae3bd73e8484604051611123929190612c45565b60405180910390a2505050565b6000602052806000526040600020600091509050806000018054611153906128fa565b80601f016020809104026020016040519081016040528092919081815260200182805461117f906128fa565b80156111cc5780601f106111a1576101008083540402835291602001916111cc565b820191906000526020600020905b8154815290600101906020018083116111af57829003601f168201915b5050505050908060010160009054906101000a900460ff16908060010160019054906101000a900460ff1690806002018054611207906128fa565b80601f0160208091040260200160405190810160405280929190818152602001828054611233906128fa565b80156112805780601f1061125557610100808354040283529160200191611280565b820191906000526020600020905b81548152906001019060200180831161126357829003601f168201915b5050505050905084565b611292611b67565b600160008381526020019081526020016000206040518060e001604052908160008201548152602001600182015481526020016002820160009054906101000a900473ffffffffffffffffffffffffffffffffffffffff1673ffffffffffffffffffffffffffffffffffffffff1673ffffffffffffffffffffffffffffffffffffffff16815260200160038201805461132a906128fa565b80601f0160208091040260200160405190810160405280929190818152602001828054611356906128fa565b80156113a35780601f10611378576101008083540402835291602001916113a3565b820191906000526020600020905b81548152906001019060200180831161138657829003601f168201915b505050505081526020016004820160009054906101000a900460ff1660028111156113d1576113d06120a0565b5b60028111156113e3576113e26120a0565b5b815260200160058201548152602001600682018054611401906128fa565b80601f016020809104026020016040519081016040528092919081815260200182805461142d906128fa565b801561147a5780601f1061144f5761010080835404028352916020019161147a565b820191906000526020600020905b81548152906001019060200180831161145d57829003601f168201915b5050505050815250509050919050565b6000803373ffffffffffffffffffffffffffffffffffffffff1673ffffffffffffffffffffffffffffffffffffffff16815260200190815260200160002060010160019054906101000a900460ff16611518576040517f08c379a000000000000000000000000000000000000000000000000000000000815260040161150f90612834565b60405180910390fd5b6005600081548092919061152b90612883565b91905055506040518060a0016040528060055481526020018381526020018281526020013373ffffffffffffffffffffffffffffffffffffffff168152602001600115158152506002600060055481526020019081526020016000206000820151816000015560208201518160010190816115a69190612ad7565b506040820151816002015560608201518160030160006101000a81548173ffffffffffffffffffffffffffffffffffffffff021916908373ffffffffffffffffffffffffffffffffffffffff16021790555060808201518160030160146101000a81548160ff0219169083151502179055509050503373ffffffffffffffffffffffffffffffffffffffff166005547f0a14f5ae2f9ee538270143056894f8128fb116c653fb2fde847dcebdd181622e846040516116649190612c75565b60405180910390a35050565b60055481565b600280811115611689576116886120a0565b5b6000803373ffffffffffffffffffffffffffffffffffffffff1673ffffffffffffffffffffffffffffffffffffffff16815260200190815260200160002060010160009054906101000a900460ff1660028111156116ea576116e96120a0565b5b1480611768575060016002811115611705576117046120a0565b5b6000803373ffffffffffffffffffffffffffffffffffffffff1673ffffffffffffffffffffffffffffffffffffffff16815260200190815260200160002060010160009054906101000a900460ff166002811115611766576117656120a0565b5b145b6117a7576040517f08c379a000000000000000000000000000000000000000000000000000000000815260040161179e90612ce3565b60405180910390fd5b6000831180156117b957506004548311155b6117f8576040517f08c379a00000000000000000000000000000000000000000000000000000000081526004016117ef90612d4f565b60405180910390fd5b816001600085815260200190815260200160002060040160006101000a81548160ff02191690836002811115611831576118306120a0565b5b0217905550806001600085815260200190815260200160002060060190816118599190612ad7565b503373ffffffffffffffffffffffffffffffffffffffff16837fb2f775adab28eb8a550315c18b1ddb1a5aa256753961ffaf07bbd000afba66db846040516118a19190612d6f565b60405180910390a3505050565b60026020528060005260406000206000915090508060000154908060010180546118d7906128fa565b80601f0160208091040260200160405190810160405280929190818152602001828054611903906128fa565b80156119505780601f1061192557610100808354040283529160200191611950565b820191906000526020600020905b81548152906001019060200180831161193357829003601f168201915b5050505050908060020154908060030160009054906101000a900473ffffffffffffffffffffffffffffffffffffffff16908060030160149054906101000a900460ff16905085565b6119a1611bcc565b600260008381526020019081526020016000206040518060a0016040529081600082015481526020016001820180546119d9906128fa565b80601f0160208091040260200160405190810160405280929190818152602001828054611a05906128fa565b8015611a525780601f10611a2757610100808354040283529160200191611a52565b820191906000526020600020905b815481529060010190602001808311611a3557829003601f168201915b50505050508152602001600282015481526020016003820160009054906101000a900473ffffffffffffffffffffffffffffffffffffffff1673ffffffffffffffffffffffffffffffffffffffff1673ffffffffffffffffffffffffffffffffffffffff1681526020016003820160149054906101000a900460ff1615151515815250509050919050565b6040518060c00160405280600081526020016060815260200160008152602001600073ffffffffffffffffffffffffffffffffffffffff168152602001600015158152602001600081525090565b60405180608001604052806060815260200160006002811115611b5157611b506120a0565b5b8152602001600015158152602001606081525090565b6040518060e001604052806000815260200160008152602001600073ffffffffffffffffffffffffffffffffffffffff1681526020016060815260200160006002811115611bb857611bb76120a0565b5b815260200160008152602001606081525090565b6040518060a00160405280600081526020016060815260200160008152602001600073ffffffffffffffffffffffffffffffffffffffff1681526020016000151581525090565b6000604051905090565b600080fd5b600080fd5b6000819050919050565b611c3a81611c27565b8114611c4557600080fd5b50565b600081359050611c5781611c31565b92915050565b600060208284031215611c7357611c72611c1d565b5b6000611c8184828501611c48565b91505092915050565b600080fd5b600080fd5b6000601f19601f8301169050919050565b7f4e487b7100000000000000000000000000000000000000000000000000000000600052604160045260246000fd5b611cdd82611c94565b810181811067ffffffffffffffff82111715611cfc57611cfb611ca5565b5b80604052505050565b6000611d0f611c13565b9050611d1b8282611cd4565b919050565b600067ffffffffffffffff821115611d3b57611d3a611ca5565b5b611d4482611c94565b9050602081019050919050565b82818337600083830152505050565b6000611d73611d6e84611d20565b611d05565b905082815260208101848484011115611d8f57611d8e611c8f565b5b611d9a848285611d51565b509392505050565b600082601f830112611db757611db6611c8a565b5b8135611dc7848260208601611d60565b91505092915050565b60008060408385031215611de757611de6611c1d565b5b6000611df585828601611c48565b925050602083013567ffffffffffffffff811115611e1657611e15611c22565b5b611e2285828601611da2565b9150509250929050565b611e3581611c27565b82525050565b600081519050919050565b600082825260208201905092915050565b60005b83811015611e75578082015181840152602081019050611e5a565b60008484015250505050565b6000611e8c82611e3b565b611e968185611e46565b9350611ea6818560208601611e57565b611eaf81611c94565b840191505092915050565b600073ffffffffffffffffffffffffffffffffffffffff82169050919050565b6000611ee582611eba565b9050919050565b611ef581611eda565b82525050565b60008115159050919050565b611f1081611efb565b82525050565b600060c083016000830151611f2e6000860182611e2c565b5060208301518482036020860152611f468282611e81565b9150506040830151611f5b6040860182611e2c565b506060830151611f6e6060860182611eec565b506080830151611f816080860182611f07565b5060a0830151611f9460a0860182611e2c565b508091505092915050565b60006020820190508181036000830152611fb98184611f16565b905092915050565b60008060408385031215611fd857611fd7611c1d565b5b600083013567ffffffffffffffff811115611ff657611ff5611c22565b5b61200285828601611da2565b925050602061201385828601611c48565b9150509250929050565b61202681611c27565b82525050565b6000602082019050612041600083018461201d565b92915050565b61205081611eda565b811461205b57600080fd5b50565b60008135905061206d81612047565b92915050565b60006020828403121561208957612088611c1d565b5b60006120978482850161205e565b91505092915050565b7f4e487b7100000000000000000000000000000000000000000000000000000000600052602160045260246000fd5b600381106120e0576120df6120a0565b5b50565b60008190506120f1826120cf565b919050565b6000612101826120e3565b9050919050565b612111816120f6565b82525050565b600060808301600083015184820360008601526121348282611e81565b91505060208301516121496020860182612108565b50604083015161215c6040860182611f07565b50606083015184820360608601526121748282611e81565b9150508091505092915050565b6000602082019050818103600083015261219b8184612117565b905092915050565b600082825260208201905092915050565b60006121bf82611e3b565b6121c981856121a3565b93506121d9818560208601611e57565b6121e281611c94565b840191505092915050565b6121f681611eda565b82525050565b61220581611efb565b82525050565b600060c082019050612220600083018961201d565b818103602083015261223281886121b4565b9050612241604083018761201d565b61224e60608301866121ed565b61225b60808301856121fc565b61226860a083018461201d565b979650505050505050565b60038110612284576122836120a0565b5b50565b600081905061229582612273565b919050565b60006122a582612287565b9050919050565b6122b58161229a565b82525050565b600060e0820190506122d0600083018a61201d565b6122dd602083018961201d565b6122ea60408301886121ed565b81810360608301526122fc81876121b4565b905061230b60808301866122ac565b61231860a083018561201d565b81810360c083015261232a81846121b4565b905098975050505050505050565b6003811061234557600080fd5b50565b60008135905061235781612338565b92915050565b60008060006060848603121561237657612375611c1d565b5b600084013567ffffffffffffffff81111561239457612393611c22565b5b6123a086828701611da2565b93505060206123b186828701612348565b925050604084013567ffffffffffffffff8111156123d2576123d1611c22565b5b6123de86828701611da2565b9150509250925092565b6123f1816120f6565b82525050565b6000608082019050818103600083015261241181876121b4565b905061242060208301866123e8565b61242d60408301856121fc565b818103606083015261243f81846121b4565b905095945050505050565b6124538161229a565b82525050565b600060e0830160008301516124716000860182611e2c565b5060208301516124846020860182611e2c565b5060408301516124976040860182611eec565b50606083015184820360608601526124af8282611e81565b91505060808301516124c4608086018261244a565b5060a08301516124d760a0860182611e2c565b5060c083015184820360c08601526124ef8282611e81565b9150508091505092915050565b600060208201905081810360008301526125168184612459565b905092915050565b6003811061252b57600080fd5b50565b60008135905061253d8161251e565b92915050565b60008060006060848603121561255c5761255b611c1d565b5b600061256a86828701611c48565b935050602061257b8682870161252e565b925050604084013567ffffffffffffffff81111561259c5761259b611c22565b5b6125a886828701611da2565b9150509250925092565b600060a0820190506125c7600083018861201d565b81810360208301526125d981876121b4565b90506125e8604083018661201d565b6125f560608301856121ed565b61260260808301846121fc565b9695505050505050565b600060a0830160008301516126246000860182611e2c565b506020830151848203602086015261263c8282611e81565b91505060408301516126516040860182611e2c565b5060608301516126646060860182611eec565b5060808301516126776080860182611f07565b508091505092915050565b6000602082019050818103600083015261269c818461260c565b905092915050565b7f41646d696e206f6e6c7900000000000000000000000000000000000000000000600082015250565b60006126da600a836121a3565b91506126e5826126a4565b602082019050919050565b60006020820190508181036000830152612709816126cd565b9050919050565b7f496e76616c69642066756e642072657175657374204944000000000000000000600082015250565b60006127466017836121a3565b915061275182612710565b602082019050919050565b6000602082019050818103600083015261277581612739565b9050919050565b7f416c726561647920617070726f76656400000000000000000000000000000000600082015250565b60006127b26010836121a3565b91506127bd8261277c565b602082019050919050565b600060208201905081810360008301526127e1816127a5565b9050919050565b7f55736572206e6f74207265676973746572656400000000000000000000000000600082015250565b600061281e6013836121a3565b9150612829826127e8565b602082019050919050565b6000602082019050818103600083015261284d81612811565b9050919050565b7f4e487b7100000000000000000000000000000000000000000000000000000000600052601160045260246000fd5b600061288e82611c27565b91507fffffffffffffffffffffffffffffffffffffffffffffffffffffffffffffffff82036128c0576128bf612854565b5b600182019050919050565b7f4e487b7100000000000000000000000000000000000000000000000000000000600052602260045260246000fd5b6000600282049050600182168061291257607f821691505b602082108103612925576129246128cb565b5b50919050565b60008190508160005260206000209050919050565b60006020601f8301049050919050565b600082821b905092915050565b60006008830261298d7fffffffffffffffffffffffffffffffffffffffffffffffffffffffffffffffff82612950565b6129978683612950565b95508019841693508086168417925050509392505050565b6000819050919050565b60006129d46129cf6129ca84611c27565b6129af565b611c27565b9050919050565b6000819050919050565b6129ee836129b9565b612a026129fa826129db565b84845461295d565b825550505050565b600090565b612a17612a0a565b612a228184846129e5565b505050565b5b81811015612a4657612a3b600082612a0f565b600181019050612a28565b5050565b601f821115612a8b57612a5c8161292b565b612a6584612940565b81016020851015612a74578190505b612a88612a8085612940565b830182612a27565b50505b505050565b600082821c905092915050565b6000612aae60001984600802612a90565b1980831691505092915050565b6000612ac78383612a9d565b9150826002028217905092915050565b612ae082611e3b565b67ffffffffffffffff811115612af957612af8611ca5565b5b612b0382546128fa565b612b0e828285612a4a565b600060209050601f831160018114612b415760008415612b2f578287015190505b612b398582612abb565b865550612ba1565b601f198416612b4f8661292b565b60005b82811015612b7757848901518255600182019150602085019450602081019050612b52565b86831015612b945784890151612b90601f891682612a9d565b8355505b6001600288020188555050505b505050505050565b60006040820190508181036000830152612bc381856121b4565b9050612bd2602083018461201d565b9392505050565b7f5573657220616c72656164792072656769737465726564000000000000000000600082015250565b6000612c0f6017836121a3565b9150612c1a82612bd9565b602082019050919050565b60006020820190508181036000830152612c3e81612c02565b9050919050565b60006040820190508181036000830152612c5f81856121b4565b9050612c6e60208301846123e8565b9392505050565b60006020820190508181036000830152612c8f81846121b4565b905092915050565b7f4e6f7420617574686f72697a6564000000000000000000000000000000000000600082015250565b6000612ccd600e836121a3565b9150612cd882612c97565b602082019050919050565b60006020820190508181036000830152612cfc81612cc0565b9050919050565b7f496e76616c696420726571756573742049440000000000000000000000000000600082015250565b6000612d396012836121a3565b9150612d4482612d03565b602082019050919050565b60006020820190508181036000830152612d6881612d2c565b9050919050565b6000602082019050612d8460008301846122ac565b9291505056fea26469706673582212204bf02fa47eda79e3829911142424248d6b220f62363b3a0dcc4a48621b9bed4364736f6c63430008180033",
  "linkReferences": {},
  "deployedLinkReferences": {}
}