{
  "_format": "hh-sol-artifact-1",
  "contractName": "Governance",
  "sourceName": "contracts/Governance.sol",
  "abi": [
    {
      "anonymous": false,
      "inputs": [
        {
          "indexed": true,
          "internalType": "uint256",
          "name": "requestId",
          "type": "uint256"
        },
        {
          "indexed": true,
          "internalType": "address",
          "name": "approver",
          "type": "address"
        }
      ],
      "name": "FundApproved",
      "type": "event"
    },
    {
      "anonymous": false,
      "inputs": [
        {
          "indexed": true,
          "internalType": "uint256",
          "name": "requestId",
          "type": "uint256"
        },
        {
          "indexed": false,
          "internalType": "string",
          "name": "purpose",
          "type": "string"
        },
        {
          "indexed": false,
          "internalType": "uint256",
          "name": "amount",
          "type": "uint256"
        },
        {
          "indexed": true,
          "internalType": "address",
          "name": "requester",
          "type": "address"
        }
      ],
      "name": "FundRequested",
      "type": "event"
    },
    {
      "anonymous": false,
      "inputs": [
        {
          "indexed": true,
          "internalType": "uint256",
          "name": "landId",
          "type": "uint256"
        },
        {
          "indexed": false,
          "internalType": "string",
          "name": "location",
          "type": "string"
        },
        {
          "indexed": true,
          "internalType": "address",
          "name": "owner",
          "type": "address"
        }
      ],
      "name": "LandRegistered",
      "type": "event"
    },
    {
      "anonymous": false,
      "inputs": [
        {
          "indexed": true,
          "internalType": "uint256",
          "name": "requestId",
          "type": "uint256"
        },
        {
          "indexed": true,
          "internalType": "address",
          "name": "applicant",
          "type": "address"
        },
        {
          "indexed": false,
          "internalType": "uint256",
          "name": "serviceId",
          "type": "uint256"
        }
      ],
      "name": "RequestCreated",
      "type": "event"
    },
    {
      "anonymous": false,
      "inputs": [
        {
          "indexed": true,
          "internalType": "uint256",
          "name": "requestId",
          "type": "uint256"
        },
        {
          "indexed": false,
          "internalType": "enum Governance.RequestStatus",
          "name": "status",
          "type": "uint8"
        },
        {
          "indexed": true,
          "internalType": "address",
          "name": "verifier",
          "type": "address"
        }
      ],
      "name": "RequestStatusUpdated",
      "type": "event"
    },
    {
      "anonymous": false,
      "inputs": [
        {
          "indexed": true,
          "internalType": "address",
          "name": "userAddress",
          "type": "address"
        },
        {
          "indexed": false,
          "internalType": "string",
          "name": "name",
          "type": "string"
        },
        {
          "indexed": false,
          "internalType": "enum Governance.Role",
          "name": "role",
          "type": "uint8"
        }
      ],
      "name": "UserRegistered",
      "type": "event"
    },
    {
      "inputs": [
        {
          "internalType": "uint256",
          "name": "_requestId",
          "type": "uint256"
        }
      ],
      "name": "approveFundRequest",
      "outputs": [],
      "stateMutability": "nonpayable",
      "type": "function"
    },
    {
      "inputs": [
        {
          "internalType": "uint256",
          "name": "_landId",
          "type": "uint256"
        }
      ],
      "name": "approveLand",
      "outputs": [],
      "stateMutability": "nonpayable",
      "type": "function"
    },
    {
      "inputs": [
        {
          "internalType": "uint256",
          "name": "_serviceId",
          "type": "uint256"
        },
        {
          "internalType": "string",
          "name": "_dataHash",
          "type": "string"
        }
      ],
      "name": "createServiceRequest",
      "outputs": [],
      "stateMutability": "nonpayable",
      "type": "function"
    },
    {
      "inputs": [],
      "name": "fundRequestCount",
      "outputs": [
        {
          "internalType": "uint256",
          "name": "",
          "type": "uint256"
        }
      ],
      "stateMutability": "view",
      "type": "function"
    },
    {
      "inputs": [
        {
          "internalType": "uint256",
          "name": "",
          "type": "uint256"
        }
      ],
      "name": "fundRequests",
      "outputs": [
        {
          "internalType": "uint256",
          "name": "id",
          "type": "uint256"
        },
        {
          "internalType": "string",
          "name": "purpose",
          "type": "string"
        },
        {
          "internalType": "uint256",
          "name": "amount",
          "type": "uint256"
        },
        {
          "internalType": "address",
          "name": "requester",
          "type": "address"
        },
        {
          "internalType": "bool",
          "name": "approved",
          "type": "bool"
        },
        {
          "internalType": "uint256",
          "name": "timestamp",
          "type": "uint256"
        }
      ],
      "stateMutability": "view",
      "type": "function"
    },
    {
      "inputs": [
        {
          "internalType": "uint256",
          "name": "_requestId",
          "type": "uint256"
        }
      ],
      "name": "getFundRequest",
      "outputs": [
        {
          "components": [
            {
              "internalType": "uint256",
              "name": "id",
              "type": "uint256"
            },
            {
              "internalType": "string",
              "name": "purpose",
              "type": "string"
            },
            {
              "internalType": "uint256",
              "name": "amount",
              "type": "uint256"
            },
            {
              "internalType": "address",
              "name": "requester",
              "type": "address"
            },
            {
              "internalType": "bool",
              "name": "approved",
              "type": "bool"
            },
            {
              "internalType": "uint256",
              "name": "timestamp",
              "type": "uint256"
            }
          ],
          "internalType": "struct Governance.FundRequest",
          "name": "",
          "type": "tuple"
        }
      ],
      "stateMutability": "view",
      "type": "function"
    },
    {
      "inputs": [
        {
          "internalType": "uint256",
          "name": "_landId",
          "type": "uint256"
        }
      ],
      "name": "getLand",
      "outputs": [
        {
          "components": [
            {
              "internalType": "uint256",
              "name": "id",
              "type": "uint256"
            },
            {
              "internalType": "string",
              "name": "location",
              "type": "string"
            },
            {
              "internalType": "uint256",
              "name": "area",
              "type": "uint256"
            },
            {
              "internalType": "address",
              "name": "owner",
              "type": "address"
            },
            {
              "internalType": "enum Governance.RequestStatus",
              "name": "status",
              "type": "uint8"
            }
          ],
          "internalType": "struct Governance.Land",
          "name": "",
          "type": "tuple"
        }
      ],
      "stateMutability": "view",
      "type": "function"
    },
    {
      "inputs": [
        {
          "internalType": "uint256",
          "name": "_requestId",
          "type": "uint256"
        }
      ],
      "name": "getRequest",
      "outputs": [
        {
          "components": [
            {
              "internalType": "uint256",
              "name": "id",
              "type": "uint256"
            },
            {
              "internalType": "uint256",
              "name": "serviceId",
              "type": "uint256"
            },
            {
              "internalType": "address",
              "name": "applicant",
              "type": "address"
            },
            {
              "internalType": "string",
              "name": "dataHash",
              "type": "string"
            },
            {
              "internalType": "enum Governance.RequestStatus",
              "name": "status",
              "type": "uint8"
            },
            {
              "internalType": "uint256",
              "name": "timestamp",
              "type": "uint256"
            },
            {
              "internalType": "string",
              "name": "remarks",
              "type": "string"
            }
          ],
          "internalType": "struct Governance.ServiceRequest",
          "name": "",
          "type": "tuple"
        }
      ],
      "stateMutability": "view",
      "type": "function"
    },
    {
      "inputs": [
        {
          "internalType": "address",
          "name": "_userAddress",
          "type": "address"
        }
      ],
      "name": "getUser",
      "outputs": [
        {
          "components": [
            {
              "internalType": "string",
              "name": "name",
              "type": "string"
            },
            {
              "internalType": "enum Governance.Role",
              "name": "role",
              "type": "uint8"
            },
            {
              "internalType": "bool",
              "name": "isRegistered",
              "type": "bool"
            },
            {
              "internalType": "string",
              "name": "emailHash",
              "type": "string"
            }
          ],
          "internalType": "struct Governance.User",
          "name": "",
          "type": "tuple"
        }
      ],
      "stateMutability": "view",
      "type": "function"
    },
    {
      "inputs": [],
      "name": "landCount",
      "outputs": [
        {
          "internalType": "uint256",
          "name": "",
          "type": "uint256"
        }
      ],
      "stateMutability": "view",
      "type": "function"
    },
    {
      "inputs": [
        {
          "internalType": "uint256",
          "name": "",
          "type": "uint256"
        }
      ],
      "name": "lands",
      "outputs": [
        {
          "internalType": "uint256",
          "name": "id",
          "type": "uint256"
        },
        {
          "internalType": "string",
          "name": "location",
          "type": "string"
        },
        {
          "internalType": "uint256",
          "name": "area",
          "type": "uint256"
        },
        {
          "internalType": "address",
          "name": "owner",
          "type": "address"
        },
        {
          "internalType": "enum Governance.RequestStatus",
          "name": "status",
          "type": "uint8"
        }
      ],
      "stateMutability": "view",
      "type": "function"
    },
    {
      "inputs": [
        {
          "internalType": "string",
          "name": "_location",
          "type": "string"
        },
        {
          "internalType": "uint256",
          "name": "_area",
          "type": "uint256"
        }
      ],
      "name": "registerLand",
      "outputs": [],
      "stateMutability": "nonpayable",
      "type": "function"
    },
    {
      "inputs": [
        {
          "internalType": "string",
          "name": "_name",
          "type": "string"
        },
        {
          "internalType": "enum Governance.Role",
          "name": "_role",
          "type": "uint8"
        },
        {
          "internalType": "string",
          "name": "_emailHash",
          "type": "string"
        }
      ],
      "name": "registerUser",
      "outputs": [],
      "stateMutability": "nonpayable",
      "type": "function"
    },
    {
      "inputs": [
        {
          "internalType": "uint256",
          "name": "_landId",
          "type": "uint256"
        }
      ],
      "name": "rejectLand",
      "outputs": [],
      "stateMutability": "nonpayable",
      "type": "function"
    },
    {
      "inputs": [],
      "name": "requestCount",
      "outputs": [
        {
          "internalType": "uint256",
          "name": "",
          "type": "uint256"
        }
      ],
      "stateMutability": "view",
      "type": "function"
    },
    {
      "inputs": [
        {
          "internalType": "string",
          "name": "_purpose",
          "type": "string"
        },
        {
          "internalType": "uint256",
          "name": "_amount",
          "type": "uint256"
        }
      ],
      "name": "requestFunds",
      "outputs": [],
      "stateMutability": "nonpayable",
      "type": "function"
    },
    {
      "inputs": [
        {
          "internalType": "uint256",
          "name": "",
          "type": "uint256"
        }
      ],
      "name": "requests",
      "outputs": [
        {
          "internalType": "uint256",
          "name": "id",
          "type": "uint256"
        },
        {
          "internalType": "uint256",
          "name": "serviceId",
          "type": "uint256"
        },
        {
          "internalType": "address",
          "name": "applicant",
          "type": "address"
        },
        {
          "internalType": "string",
          "name": "dataHash",
          "type": "string"
        },
        {
          "internalType": "enum Governance.RequestStatus",
          "name": "status",
          "type": "uint8"
        },
        {
          "internalType": "uint256",
          "name": "timestamp",
          "type": "uint256"
        },
        {
          "internalType": "string",
          "name": "remarks",
          "type": "string"
        }
      ],
      "stateMutability": "view",
      "type": "function"
    },
    {
      "inputs": [
        {
          "internalType": "uint256",
          "name": "_requestId",
          "type": "uint256"
        },
        {
          "internalType": "enum Governance.RequestStatus",
          "name": "_status",
          "type": "uint8"
        },
        {
          "internalType": "string",
          "name": "_remarks",
          "type": "string"
        }
      ],
      "name": "updateRequestStatus",
      "outputs": [],
      "stateMutability": "nonpayable",
      "type": "function"
    },
    {
      "inputs": [
        {
          "internalType": "address",
          "name": "",
          "type": "address"
        }
      ],
      "name": "users",
      "outputs": [
        {
          "internalType": "string",
          "name": "name",
          "type": "string"
        },
        {
          "internalType": "enum Governance.Role",
          "name": "role",
          "type": "uint8"
        },
        {
          "internalType": "bool",
          "name": "isRegistered",
          "type": "bool"
        },
        {
          "internalType": "string",
          "name": "emailHash",
          "type": "string"
        }
      ],
      "stateMutability": "view",
      "type": "function"
    }
  ],
  "bytecode": "0x608060405234801561001057600080fd5b506131de806100206000396000f3fe608060405234801561001057600080fd5b50600436106101215760003560e01c806381d12c58116100ad578063ce924ed911610071578063ce924ed914610338578063d7bce65814610354578063d865873f14610372578063e261f1e51461038e578063f02dd53f146103c257610121565b806381d12c58146102655780639721edb91461029b578063a2b5e320146102b9578063a87430ba146102d5578063c58343ef1461030857610121565b80634dfa8434116100f45780634dfa8434146101965780635878d830146101c65780635badbe4c146101e25780636f77926b1461020057806380ee37fa1461023057610121565b806321464bfe1461012657806338c887b214610142578063452128e31461015e5780634c3231af1461017a575b600080fd5b610140600480360381019061013b919061200f565b6103f2565b005b61015c6004803603810190610157919061200f565b6105d2565b005b61017860048036038101906101739190612182565b6107a4565b005b610194600480360381019061018f919061200f565b6109e5565b005b6101b060048036038101906101ab919061200f565b610bb6565b6040516101bd9190612351565b60405180910390f35b6101e060048036038101906101db9190612373565b610d04565b005b6101ea610efc565b6040516101f791906123de565b60405180910390f35b61021a60048036038101906102159190612425565b610f02565b6040516102279190612533565b60405180910390f35b61024a6004803603810190610245919061200f565b6110d4565b60405161025c969594939291906125bd565b60405180910390f35b61027f600480360381019061027a919061200f565b6111c5565b604051610292979695949392919061266d565b60405180910390f35b6102a3611344565b6040516102b091906123de565b60405180910390f35b6102d360048036038101906102ce919061270f565b61134a565b005b6102ef60048036038101906102ea9190612425565b611492565b6040516102ff94939291906127a9565b60405180910390f35b610322600480360381019061031d919061200f565b6115ec565b60405161032f91906128ae565b60405180910390f35b610352600480360381019061034d9190612373565b6117ec565b005b61035c6119f2565b60405161036991906123de565b60405180910390f35b61038c600480360381019061038791906128f5565b6119f8565b005b6103a860048036038101906103a3919061200f565b611c30565b6040516103b9959493929190612964565b60405180910390f35b6103dc60048036038101906103d7919061200f565b611d1b565b6040516103e99190612a34565b60405180910390f35b6001600281111561040657610405612452565b5b6000803373ffffffffffffffffffffffffffffffffffffffff1673ffffffffffffffffffffffffffffffffffffffff16815260200190815260200160002060010160009054906101000a900460ff16600281111561046757610466612452565b5b146104a7576040517f08c379a000000000000000000000000000000000000000000000000000000000815260040161049e90612aa2565b60405180910390fd5b6000811180156104b957506006548111155b6104f8576040517f08c379a00000000000000000000000000000000000000000000000000000000081526004016104ef90612b0e565b60405180910390fd5b6003600082815260200190815260200160002060030160149054906101000a900460ff161561055c576040517f08c379a000000000000000000000000000000000000000000000000000000000815260040161055390612b7a565b60405180910390fd5b60016003600083815260200190815260200160002060030160146101000a81548160ff0219169083151502179055503373ffffffffffffffffffffffffffffffffffffffff16817f3a87be3596d79f6b7eb04a57849c8ea2601e4586b09ec62c43889f760bfeeb1960405160405180910390a350565b600160028111156105e6576105e5612452565b5b6000803373ffffffffffffffffffffffffffffffffffffffff1673ffffffffffffffffffffffffffffffffffffffff16815260200190815260200160002060010160009054906101000a900460ff16600281111561064757610646612452565b5b14610687576040517f08c379a000000000000000000000000000000000000000000000000000000000815260040161067e90612aa2565b60405180910390fd5b60008111801561069957506005548111155b6106d8576040517f08c379a00000000000000000000000000000000000000000000000000000000081526004016106cf90612be6565b60405180910390fd5b600060028111156106ec576106eb612452565b5b6002600083815260200190815260200160002060030160149054906101000a900460ff16600281111561072257610721612452565b5b14610762576040517f08c379a000000000000000000000000000000000000000000000000000000000815260040161075990612c52565b60405180910390fd5b60016002600083815260200190815260200160002060030160146101000a81548160ff0219169083600281111561079c5761079b612452565b5b021790555050565b6000803373ffffffffffffffffffffffffffffffffffffffff1673ffffffffffffffffffffffffffffffffffffffff16815260200190815260200160002060010160019054906101000a900460ff16610832576040517f08c379a000000000000000000000000000000000000000000000000000000000815260040161082990612cbe565b60405180910390fd5b6004600081548092919061084590612d0d565b91905055506040518060e0016040528060045481526020018381526020013373ffffffffffffffffffffffffffffffffffffffff1681526020018281526020016000600281111561089957610898612452565b5b815260200142815260200160405180602001604052806000815250815250600160006004548152602001908152602001600020600082015181600001556020820151816001015560408201518160020160006101000a81548173ffffffffffffffffffffffffffffffffffffffff021916908373ffffffffffffffffffffffffffffffffffffffff160217905550606082015181600301908161093c9190612f61565b5060808201518160040160006101000a81548160ff0219169083600281111561096857610967612452565b5b021790555060a0820151816005015560c082015181600601908161098c9190612f61565b509050503373ffffffffffffffffffffffffffffffffffffffff166004547f0f07843fcc5047a6c0a2af35eec5eab563fa21efdc4473efb2303d6c2f8ec6f8846040516109d991906123de565b60405180910390a35050565b600160028111156109f9576109f8612452565b5b6000803373ffffffffffffffffffffffffffffffffffffffff1673ffffffffffffffffffffffffffffffffffffffff16815260200190815260200160002060010160009054906101000a900460ff166002811115610a5a57610a59612452565b5b14610a9a576040517f08c379a0000000000000000000000000000000000000000000000000000000008152600401610a9190612aa2565b60405180910390fd5b600081118015610aac57506005548111155b610aeb576040517f08c379a0000000000000000000000000000000000000000000000000000000008152600401610ae290612be6565b60405180910390fd5b60006002811115610aff57610afe612452565b5b6002600083815260200190815260200160002060030160149054906101000a900460ff166002811115610b3557610b34612452565b5b14610b75576040517f08c379a0000000000000000000000000000000000000000000000000000000008152600401610b6c90612c52565b60405180910390fd5b600280600083815260200190815260200160002060030160146101000a81548160ff02191690836002811115610bae57610bad612452565b5b021790555050565b610bbe611e7f565b600360008381526020019081526020016000206040518060c001604052908160008201548152602001600182018054610bf690612d84565b80601f0160208091040260200160405190810160405280929190818152602001828054610c2290612d84565b8015610c6f5780601f10610c4457610100808354040283529160200191610c6f565b820191906000526020600020905b815481529060010190602001808311610c5257829003601f168201915b50505050508152602001600282015481526020016003820160009054906101000a900473ffffffffffffffffffffffffffffffffffffffff1673ffffffffffffffffffffffffffffffffffffffff1673ffffffffffffffffffffffffffffffffffffffff1681526020016003820160149054906101000a900460ff161515151581526020016004820154815250509050919050565b6000803373ffffffffffffffffffffffffffffffffffffffff1673ffffffffffffffffffffffffffffffffffffffff16815260200190815260200160002060010160019054906101000a900460ff16610d92576040517f08c379a0000000000000000000000000000000000000000000000000000000008152600401610d8990612cbe565b60405180910390fd5b60066000815480929190610da590612d0d565b91905055506040518060c0016040528060065481526020018381526020018281526020013373ffffffffffffffffffffffffffffffffffffffff16815260200160001515815260200142815250600360006006548152602001908152602001600020600082015181600001556020820151816001019081610e269190612f61565b506040820151816002015560608201518160030160006101000a81548173ffffffffffffffffffffffffffffffffffffffff021916908373ffffffffffffffffffffffffffffffffffffffff16021790555060808201518160030160146101000a81548160ff02191690831515021790555060a082015181600401559050503373ffffffffffffffffffffffffffffffffffffffff166006547fc37f40acc0c55043052c85bee48f5be1c3b629652c88d13352a3a3965f121c7d8484604051610ef0929190613033565b60405180910390a35050565b60045481565b610f0a611ecd565b6000808373ffffffffffffffffffffffffffffffffffffffff1673ffffffffffffffffffffffffffffffffffffffff168152602001908152602001600020604051806080016040529081600082018054610f6390612d84565b80601f0160208091040260200160405190810160405280929190818152602001828054610f8f90612d84565b8015610fdc5780601f10610fb157610100808354040283529160200191610fdc565b820191906000526020600020905b815481529060010190602001808311610fbf57829003601f168201915b505050505081526020016001820160009054906101000a900460ff16600281111561100a57611009612452565b5b600281111561101c5761101b612452565b5b81526020016001820160019054906101000a900460ff1615151515815260200160028201805461104b90612d84565b80601f016020809104026020016040519081016040528092919081815260200182805461107790612d84565b80156110c45780601f10611099576101008083540402835291602001916110c4565b820191906000526020600020905b8154815290600101906020018083116110a757829003601f168201915b5050505050815250509050919050565b60036020528060005260406000206000915090508060000154908060010180546110fd90612d84565b80601f016020809104026020016040519081016040528092919081815260200182805461112990612d84565b80156111765780601f1061114b57610100808354040283529160200191611176565b820191906000526020600020905b81548152906001019060200180831161115957829003601f168201915b5050505050908060020154908060030160009054906101000a900473ffffffffffffffffffffffffffffffffffffffff16908060030160149054906101000a900460ff16908060040154905086565b60016020528060005260406000206000915090508060000154908060010154908060020160009054906101000a900473ffffffffffffffffffffffffffffffffffffffff169080600301805461121a90612d84565b80601f016020809104026020016040519081016040528092919081815260200182805461124690612d84565b80156112935780601f1061126857610100808354040283529160200191611293565b820191906000526020600020905b81548152906001019060200180831161127657829003601f168201915b5050505050908060040160009054906101000a900460ff16908060050154908060060180546112c190612d84565b80601f01602080910402602001604051908101604052809291908181526020018280546112ed90612d84565b801561133a5780601f1061130f5761010080835404028352916020019161133a565b820191906000526020600020905b81548152906001019060200180831161131d57829003601f168201915b5050505050905087565b60065481565b604051806080016040528084815260200183600281111561136e5761136d612452565b5b8152602001600115158152602001828152506000803373ffffffffffffffffffffffffffffffffffffffff1673ffffffffffffffffffffffffffffffffffffffff16815260200190815260200160002060008201518160000190816113d39190612f61565b5060208201518160010160006101000a81548160ff021916908360028111156113ff576113fe612452565b5b021790555060408201518160010160016101000a81548160ff02191690831515021790555060608201518160020190816114399190612f61565b509050503373ffffffffffffffffffffffffffffffffffffffff167fc2e5d5da58bd71d1a2d14cdef02a4256d971b728088f8190d067ccfbae3bd73e8484604051611485929190613063565b60405180910390a2505050565b60006020528060005260406000206000915090508060000180546114b590612d84565b80601f01602080910402602001604051908101604052809291908181526020018280546114e190612d84565b801561152e5780601f106115035761010080835404028352916020019161152e565b820191906000526020600020905b81548152906001019060200180831161151157829003601f168201915b5050505050908060010160009054906101000a900460ff16908060010160019054906101000a900460ff169080600201805461156990612d84565b80601f016020809104026020016040519081016040528092919081815260200182805461159590612d84565b80156115e25780601f106115b7576101008083540402835291602001916115e2565b820191906000526020600020905b8154815290600101906020018083116115c557829003601f168201915b5050505050905084565b6115f4611f09565b600160008381526020019081526020016000206040518060e001604052908160008201548152602001600182015481526020016002820160009054906101000a900473ffffffffffffffffffffffffffffffffffffffff1673ffffffffffffffffffffffffffffffffffffffff1673ffffffffffffffffffffffffffffffffffffffff16815260200160038201805461168c90612d84565b80601f01602080910402602001604051908101604052809291908181526020018280546116b890612d84565b80156117055780601f106116da57610100808354040283529160200191611705565b820191906000526020600020905b8154815290600101906020018083116116e857829003601f168201915b505050505081526020016004820160009054906101000a900460ff16600281111561173357611732612452565b5b600281111561174557611744612452565b5b81526020016005820154815260200160068201805461176390612d84565b80601f016020809104026020016040519081016040528092919081815260200182805461178f90612d84565b80156117dc5780601f106117b1576101008083540402835291602001916117dc565b820191906000526020600020905b8154815290600101906020018083116117bf57829003601f168201915b5050505050815250509050919050565b6000803373ffffffffffffffffffffffffffffffffffffffff1673ffffffffffffffffffffffffffffffffffffffff16815260200190815260200160002060010160019054906101000a900460ff1661187a576040517f08c379a000000000000000000000000000000000000000000000000000000000815260040161187190612cbe565b60405180910390fd5b6005600081548092919061188d90612d0d565b91905055506040518060a0016040528060055481526020018381526020018281526020013373ffffffffffffffffffffffffffffffffffffffff168152602001600060028111156118e1576118e0612452565b5b8152506002600060055481526020019081526020016000206000820151816000015560208201518160010190816119189190612f61565b506040820151816002015560608201518160030160006101000a81548173ffffffffffffffffffffffffffffffffffffffff021916908373ffffffffffffffffffffffffffffffffffffffff16021790555060808201518160030160146101000a81548160ff0219169083600281111561199557611994612452565b5b02179055509050503373ffffffffffffffffffffffffffffffffffffffff166005547f0a14f5ae2f9ee538270143056894f8128fb116c653fb2fde847dcebdd181622e846040516119e69190613093565b60405180910390a35050565b60055481565b600280811115611a0b57611a0a612452565b5b6000803373ffffffffffffffffffffffffffffffffffffffff1673ffffffffffffffffffffffffffffffffffffffff16815260200190815260200160002060010160009054906101000a900460ff166002811115611a6c57611a6b612452565b5b1480611aea575060016002811115611a8757611a86612452565b5b6000803373ffffffffffffffffffffffffffffffffffffffff1673ffffffffffffffffffffffffffffffffffffffff16815260200190815260200160002060010160009054906101000a900460ff166002811115611ae857611ae7612452565b5b145b611b29576040517f08c379a0000000000000000000000000000000000000000000000000000000008152600401611b2090613101565b60405180910390fd5b600083118015611b3b57506004548311155b611b7a576040517f08c379a0000000000000000000000000000000000000000000000000000000008152600401611b719061316d565b60405180910390fd5b816001600085815260200190815260200160002060040160006101000a81548160ff02191690836002811115611bb357611bb2612452565b5b021790555080600160008581526020019081526020016000206006019081611bdb9190612f61565b503373ffffffffffffffffffffffffffffffffffffffff16837fb2f775adab28eb8a550315c18b1ddb1a5aa256753961ffaf07bbd000afba66db84604051611c23919061318d565b60405180910390a3505050565b6002602052806000526040600020600091509050806000015490806001018054611c5990612d84565b80601f0160208091040260200160405190810160405280929190818152602001828054611c8590612d84565b8015611cd25780601f10611ca757610100808354040283529160200191611cd2565b820191906000526020600020905b815481529060010190602001808311611cb557829003601f168201915b5050505050908060020154908060030160009054906101000a900473ffffffffffffffffffffffffffffffffffffffff16908060030160149054906101000a900460ff16905085565b611d23611f6e565b600260008381526020019081526020016000206040518060a001604052908160008201548152602001600182018054611d5b90612d84565b80601f0160208091040260200160405190810160405280929190818152602001828054611d8790612d84565b8015611dd45780601f10611da957610100808354040283529160200191611dd4565b820191906000526020600020905b815481529060010190602001808311611db757829003601f168201915b50505050508152602001600282015481526020016003820160009054906101000a900473ffffffffffffffffffffffffffffffffffffffff1673ffffffffffffffffffffffffffffffffffffffff1673ffffffffffffffffffffffffffffffffffffffff1681526020016003820160149054906101000a900460ff166002811115611e6257611e61612452565b5b6002811115611e7457611e73612452565b5b815250509050919050565b6040518060c00160405280600081526020016060815260200160008152602001600073ffffffffffffffffffffffffffffffffffffffff168152602001600015158152602001600081525090565b60405180608001604052806060815260200160006002811115611ef357611ef2612452565b5b8152602001600015158152602001606081525090565b6040518060e001604052806000815260200160008152602001600073ffffffffffffffffffffffffffffffffffffffff1681526020016060815260200160006002811115611f5a57611f59612452565b5b815260200160008152602001606081525090565b6040518060a00160405280600081526020016060815260200160008152602001600073ffffffffffffffffffffffffffffffffffffffff16815260200160006002811115611fbf57611fbe612452565b5b81525090565b6000604051905090565b600080fd5b600080fd5b6000819050919050565b611fec81611fd9565b8114611ff757600080fd5b50565b60008135905061200981611fe3565b92915050565b60006020828403121561202557612024611fcf565b5b600061203384828501611ffa565b91505092915050565b600080fd5b600080fd5b6000601f19601f8301169050919050565b7f4e487b7100000000000000000000000000000000000000000000000000000000600052604160045260246000fd5b61208f82612046565b810181811067ffffffffffffffff821117156120ae576120ad612057565b5b80604052505050565b60006120c1611fc5565b90506120cd8282612086565b919050565b600067ffffffffffffffff8211156120ed576120ec612057565b5b6120f682612046565b9050602081019050919050565b82818337600083830152505050565b6000612125612120846120d2565b6120b7565b90508281526020810184848401111561214157612140612041565b5b61214c848285612103565b509392505050565b600082601f8301126121695761216861203c565b5b8135612179848260208601612112565b91505092915050565b6000806040838503121561219957612198611fcf565b5b60006121a785828601611ffa565b925050602083013567ffffffffffffffff8111156121c8576121c7611fd4565b5b6121d485828601612154565b9150509250929050565b6121e781611fd9565b82525050565b600081519050919050565b600082825260208201905092915050565b60005b8381101561222757808201518184015260208101905061220c565b60008484015250505050565b600061223e826121ed565b61224881856121f8565b9350612258818560208601612209565b61226181612046565b840191505092915050565b600073ffffffffffffffffffffffffffffffffffffffff82169050919050565b60006122978261226c565b9050919050565b6122a78161228c565b82525050565b60008115159050919050565b6122c2816122ad565b82525050565b600060c0830160008301516122e060008601826121de565b50602083015184820360208601526122f88282612233565b915050604083015161230d60408601826121de565b506060830151612320606086018261229e565b50608083015161233360808601826122b9565b5060a083015161234660a08601826121de565b508091505092915050565b6000602082019050818103600083015261236b81846122c8565b905092915050565b6000806040838503121561238a57612389611fcf565b5b600083013567ffffffffffffffff8111156123a8576123a7611fd4565b5b6123b485828601612154565b92505060206123c585828601611ffa565b9150509250929050565b6123d881611fd9565b82525050565b60006020820190506123f360008301846123cf565b92915050565b6124028161228c565b811461240d57600080fd5b50565b60008135905061241f816123f9565b92915050565b60006020828403121561243b5761243a611fcf565b5b600061244984828501612410565b91505092915050565b7f4e487b7100000000000000000000000000000000000000000000000000000000600052602160045260246000fd5b6003811061249257612491612452565b5b50565b60008190506124a382612481565b919050565b60006124b382612495565b9050919050565b6124c3816124a8565b82525050565b600060808301600083015184820360008601526124e68282612233565b91505060208301516124fb60208601826124ba565b50604083015161250e60408601826122b9565b50606083015184820360608601526125268282612233565b9150508091505092915050565b6000602082019050818103600083015261254d81846124c9565b905092915050565b600082825260208201905092915050565b6000612571826121ed565b61257b8185612555565b935061258b818560208601612209565b61259481612046565b840191505092915050565b6125a88161228c565b82525050565b6125b7816122ad565b82525050565b600060c0820190506125d260008301896123cf565b81810360208301526125e48188612566565b90506125f360408301876123cf565b612600606083018661259f565b61260d60808301856125ae565b61261a60a08301846123cf565b979650505050505050565b6003811061263657612635612452565b5b50565b600081905061264782612625565b919050565b600061265782612639565b9050919050565b6126678161264c565b82525050565b600060e082019050612682600083018a6123cf565b61268f60208301896123cf565b61269c604083018861259f565b81810360608301526126ae8187612566565b90506126bd608083018661265e565b6126ca60a08301856123cf565b81810360c08301526126dc8184612566565b905098975050505050505050565b600381106126f757600080fd5b50565b600081359050612709816126ea565b92915050565b60008060006060848603121561272857612727611fcf565b5b600084013567ffffffffffffffff81111561274657612745611fd4565b5b61275286828701612154565b9350506020612763868287016126fa565b925050604084013567ffffffffffffffff81111561278457612783611fd4565b5b61279086828701612154565b9150509250925092565b6127a3816124a8565b82525050565b600060808201905081810360008301526127c38187612566565b90506127d2602083018661279a565b6127df60408301856125ae565b81810360608301526127f18184612566565b905095945050505050565b6128058161264c565b82525050565b600060e08301600083015161282360008601826121de565b50602083015161283660208601826121de565b506040830151612849604086018261229e565b50606083015184820360608601526128618282612233565b915050608083015161287660808601826127fc565b5060a083015161288960a08601826121de565b5060c083015184820360c08601526128a18282612233565b9150508091505092915050565b600060208201905081810360008301526128c8818461280b565b905092915050565b600381106128dd57600080fd5b50565b6000813590506128ef816128d0565b92915050565b60008060006060848603121561290e5761290d611fcf565b5b600061291c86828701611ffa565b935050602061292d868287016128e0565b925050604084013567ffffffffffffffff81111561294e5761294d611fd4565b5b61295a86828701612154565b9150509250925092565b600060a08201905061297960008301886123cf565b818103602083015261298b8187612566565b905061299a60408301866123cf565b6129a7606083018561259f565b6129b4608083018461265e565b9695505050505050565b600060a0830160008301516129d660008601826121de565b50602083015184820360208601526129ee8282612233565b9150506040830151612a0360408601826121de565b506060830151612a16606086018261229e565b506080830151612a2960808601826127fc565b508091505092915050565b60006020820190508181036000830152612a4e81846129be565b905092915050565b7f41646d696e206f6e6c7900000000000000000000000000000000000000000000600082015250565b6000612a8c600a83612555565b9150612a9782612a56565b602082019050919050565b60006020820190508181036000830152612abb81612a7f565b9050919050565b7f496e76616c69642066756e642072657175657374204944000000000000000000600082015250565b6000612af8601783612555565b9150612b0382612ac2565b602082019050919050565b60006020820190508181036000830152612b2781612aeb565b9050919050565b7f416c726561647920617070726f76656400000000000000000000000000000000600082015250565b6000612b64601083612555565b9150612b6f82612b2e565b602082019050919050565b60006020820190508181036000830152612b9381612b57565b9050919050565b7f496e76616c6964206c616e642049440000000000000000000000000000000000600082015250565b6000612bd0600f83612555565b9150612bdb82612b9a565b602082019050919050565b60006020820190508181036000830152612bff81612bc3565b9050919050565b7f4c616e64206973206e6f742070656e64696e6700000000000000000000000000600082015250565b6000612c3c601383612555565b9150612c4782612c06565b602082019050919050565b60006020820190508181036000830152612c6b81612c2f565b9050919050565b7f55736572206e6f74207265676973746572656400000000000000000000000000600082015250565b6000612ca8601383612555565b9150612cb382612c72565b602082019050919050565b60006020820190508181036000830152612cd781612c9b565b9050919050565b7f4e487b7100000000000000000000000000000000000000000000000000000000600052601160045260246000fd5b6000612d1882611fd9565b91507fffffffffffffffffffffffffffffffffffffffffffffffffffffffffffffffff8203612d4a57612d49612cde565b5b600182019050919050565b7f4e487b7100000000000000000000000000000000000000000000000000000000600052602260045260246000fd5b60006002820490506001821680612d9c57607f821691505b602082108103612daf57612dae612d55565b5b50919050565b60008190508160005260206000209050919050565b60006020601f8301049050919050565b600082821b905092915050565b600060088302612e177fffffffffffffffffffffffffffffffffffffffffffffffffffffffffffffffff82612dda565b612e218683612dda565b95508019841693508086168417925050509392505050565b6000819050919050565b6000612e5e612e59612e5484611fd9565b612e39565b611fd9565b9050919050565b6000819050919050565b612e7883612e43565b612e8c612e8482612e65565b848454612de7565b825550505050565b600090565b612ea1612e94565b612eac818484612e6f565b505050565b5b81811015612ed057612ec5600082612e99565b600181019050612eb2565b5050565b601f821115612f1557612ee681612db5565b612eef84612dca565b81016020851015612efe578190505b612f12612f0a85612dca565b830182612eb1565b50505b505050565b600082821c905092915050565b6000612f3860001984600802612f1a565b1980831691505092915050565b6000612f518383612f27565b9150826002028217905092915050565b612f6a826121ed565b67ffffffffffffffff811115612f8357612f82612057565b5b612f8d8254612d84565b612f98828285612ed4565b600060209050601f831160018114612fcb5760008415612fb9578287015190505b612fc38582612f45565b86555061302b565b601f198416612fd986612db5565b60005b8281101561300157848901518255600182019150602085019450602081019050612fdc565b8683101561301e578489015161301a601f891682612f27565b8355505b6001600288020188555050505b505050505050565b6000604082019050818103600083015261304d8185612566565b905061305c60208301846123cf565b9392505050565b6000604082019050818103600083015261307d8185612566565b905061308c602083018461279a565b9392505050565b600060208201905081810360008301526130ad8184612566565b905092915050565b7f4e6f7420617574686f72697a6564000000000000000000000000000000000000600082015250565b60006130eb600e83612555565b91506130f6826130b5565b602082019050919050565b6000602082019050818103600083015261311a816130de565b9050919050565b7f496e76616c696420726571756573742049440000000000000000000000000000600082015250565b6000613157601283612555565b915061316282613121565b602082019050919050565b600060208201905081810360008301526131868161314a565b9050919050565b60006020820190506131a2600083018461265e565b9291505056fea2646970667358221220e2692bd133c4ca037033a254af7bb6e2a95ec8172857e8e2fa2fb5d58a736f4964736f6c63430008180033",
  "linkReferences": {},
  "deployedLinkReferences": {}
}